{"contracts/CarbonCredit.sol":{"CarbonCredit":{"abi":[{"inputs":[],"stateMutability":"nonpayable","type":"constructor"},{"inputs":[{"internalType":"address","name":"sender","type":"address"},{"internalType":"uint256","name":"tokenId","type":"uint256"},{"internalType":"address","name":"owner","type":"address"}],"name":"ERC721IncorrectOwner","type":"error"},{"inputs":[{"internalType":"address","name":"operator","type":"address"},{"internalType":"uint256","name":"tokenId","type":"uint256"}],"name":"ERC721InsufficientApproval","type":"error"},{"inputs":[{"internalType":"address","name":"approver","type":"address"}],"name":"ERC721InvalidApprover","type":"error"},{"inputs":[{"internalType":"address","name":"operator","type":"address"}],"name":"ERC721InvalidOperator","type":"error"},{"inputs":[{"internalType":"address","name":"owner","type":"address"}],"name":"ERC721InvalidOwner","type":"error"},{"inputs":[{"internalType":"address","name":"receiver","type":"address"}],"name":"ERC721InvalidReceiver","type":"error"},{"inputs":[{"internalType":"address","name":"sender","type":"address"}],"name":"ERC721InvalidSender","type":"error"},{"inputs":[{"internalType":"uint256","name":"tokenId","type":"uint256"}],"name":"ERC721NonexistentToken","type":"error"},{"inputs":[{"internalType":"address","name":"owner","type":"address"}],"name":"OwnableInvalidOwner","type":"error"},{"inputs":[{"internalType":"address","name":"account","type":"address"}],"name":"OwnableUnauthorizedAccount","type":"error"},{"anonymous":false,"inputs":[{"indexed":true,"internalType":"address","name":"owner","type":"address"},{"indexed":true,"internalType":"address","name":"approved","type":"address"},{"indexed":true,"internalType":"uint256","name":"tokenId","type":"uint256"}],"name":"Approval","type":"event"},{"anonymous":false,"inputs":[{"indexed":true,"internalType":"address","name":"owner","type":"address"},{"indexed":true,"internalType":"address","name":"operator","type":"address"},{"indexed":false,"internalType":"bool","name":"approved","type":"bool"}],"name":"ApprovalForAll","type":"event"},{"anonymous":false,"inputs":[{"indexed":true,"internalType":"uint256","name":"tokenId","type":"uint256"},{"indexed":true,"internalType":"address","name":"owner","type":"address"},{"indexed":false,"internalType":"uint256","name":"amount","type":"uint256"}],"name":"CreditMinted","type":"event"},{"anonymous":false,"inputs":[{"indexed":true,"internalType":"uint256","name":"tokenId","type":"uint256"}],"name":"CreditVerified","type":"event"},{"anonymous":false,"inputs":[{"indexed":true,"internalType":"address","name":"previousOwner","type":"address"},{"indexed":true,"internalType":"address","name":"newOwner","type":"address"}],"name":"OwnershipTransferred","type":"event"},{"anonymous":false,"inputs":[{"indexed":true,"internalType":"address","name":"from","type":"address"},{"indexed":true,"internalType":"address","name":"to","type":"address"},{"indexed":true,"internalType":"uint256","name":"tokenId","type":"uint256"}],"name":"Transfer","type":"event"},{"inputs":[{"internalType":"address","name":"to","type":"address"},{"internalType":"uint256","name":"tokenId","type":"uint256"}],"name":"approve","outputs":[],"stateMutability":"nonpayable","type":"function"},{"inputs":[{"internalType":"address","name":"owner","type":"address"}],"name":"balanceOf","outputs":[{"internalType":"uint256","name":"","type":"uint256"}],"stateMutability":"view","type":"function"},{"inputs":[{"internalType":"uint256","name":"","type":"uint256"}],"name":"credits","outputs":[{"internalType":"uint256","name":"amount","type":"uint256"},{"internalType":"string","name":"projectType","type":"string"},{"internalType":"uint256","name":"validUntil","type":"uint256"},{"internalType":"bool","name":"verified","type":"bool"},{"internalType":"string","name":"metadataURI","type":"string"}],"stateMutability":"view","type":"function"},{"inputs":[{"internalType":"uint256","name":"tokenId","type":"uint256"}],"name":"getApproved","outputs":[{"internalType":"address","name":"","type":"address"}],"stateMutability":"view","type":"function"},{"inputs":[{"internalType":"uint256","name":"tokenId","type":"uint256"}],"name":"getCreditDetails","outputs":[{"components":[{"internalType":"uint256","name":"amount","type":"uint256"},{"internalType":"string","name":"projectType","type":"string"},{"internalType":"uint256","name":"validUntil","type":"uint256"},{"internalType":"bool","name":"verified","type":"bool"},{"internalType":"string","name":"metadataURI","type":"string"}],"internalType":"struct CarbonCredit.Credit","name":"","type":"tuple"}],"stateMutability":"view","type":"function"},{"inputs":[{"internalType":"address","name":"owner","type":"address"},{"internalType":"address","name":"operator","type":"address"}],"name":"isApprovedForAll","outputs":[{"internalType":"bool","name":"","type":"bool"}],"stateMutability":"view","type":"function"},{"inputs":[{"internalType":"address","name":"recipient","type":"address"},{"internalType":"uint256","name":"amount","type":"uint256"},{"internalType":"string","name":"projectType","type":"string"},{"internalType":"uint256","name":"validityPeriod","type":"uint256"},{"internalType":"string","name":"metadataURI","type":"string"}],"name":"mintCredit","outputs":[{"internalType":"uint256","name":"","type":"uint256"}],"stateMutability":"nonpayable","type":"function"},{"inputs":[],"name":"name","outputs":[{"internalType":"string","name":"","type":"string"}],"stateMutability":"view","type":"function"},{"inputs":[],"name":"owner","outputs":[{"internalType":"address","name":"","type":"address"}],"stateMutability":"view","type":"function"},{"inputs":[{"internalType":"uint256","name":"tokenId","type":"uint256"}],"name":"ownerOf","outputs":[{"internalType":"address","name":"","type":"address"}],"stateMutability":"view","type":"function"},{"inputs":[],"name":"renounceOwnership","outputs":[],"stateMutability":"nonpayable","type":"function"},{"inputs":[{"internalType":"address","name":"from","type":"address"},{"internalType":"address","name":"to","type":"address"},{"internalType":"uint256","name":"tokenId","type":"uint256"}],"name":"safeTransferFrom","outputs":[],"stateMutability":"nonpayable","type":"function"},{"inputs":[{"internalType":"address","name":"from","type":"address"},{"internalType":"address","name":"to","type":"address"},{"internalType":"uint256","name":"tokenId","type":"uint256"},{"internalType":"bytes","name":"data","type":"bytes"}],"name":"safeTransferFrom","outputs":[],"stateMutability":"nonpayable","type":"function"},{"inputs":[{"internalType":"address","name":"operator","type":"address"},{"internalType":"bool","name":"approved","type":"bool"}],"name":"setApprovalForAll","outputs":[],"stateMutability":"nonpayable","type":"function"},{"inputs":[{"internalType":"bytes4","name":"interfaceId","type":"bytes4"}],"name":"supportsInterface","outputs":[{"internalType":"bool","name":"","type":"bool"}],"stateMutability":"view","type":"function"},{"inputs":[],"name":"symbol","outputs":[{"internalType":"string","name":"","type":"string"}],"stateMutability":"view","type":"function"},{"inputs":[{"internalType":"uint256","name":"tokenId","type":"uint256"}],"name":"tokenURI","outputs":[{"internalType":"string","name":"","type":"string"}],"stateMutability":"view","type":"function"},{"inputs":[{"internalType":"address","name":"from","type":"address"},{"internalType":"address","name":"to","type":"address"},{"internalType":"uint256","name":"tokenId","type":"uint256"}],"name":"transferFrom","outputs":[],"stateMutability":"nonpayable","type":"function"},{"inputs":[{"internalType":"address","name":"newOwner","type":"address"}],"name":"transferOwnership","outputs":[],"stateMutability":"nonpayable","type":"function"},{"inputs":[{"internalType":"uint256","name":"tokenId","type":"uint256"}],"name":"verifyCredit","outputs":[],"stateMutability":"nonpayable","type":"function"}],"evm":{"bytecode":{"linkReferences":{},"object":"60806040523480156200001157600080fd5b50336040518060400160405280600d81526020016c10d85c989bdb8810dc99591a5d609a1b81525060405180604001604052806002815260200161434360f01b8152508160009081620000659190620001af565b506001620000748282620001af565b5050506001600160a01b038116620000a657604051631e4fbdf760e01b81526000600482015260240160405180910390fd5b620000b181620000b8565b506200027b565b600680546001600160a01b038381166001600160a01b0319831681179093556040519116919082907f8be0079c531659141344cd1fd0a4f28419497f9722a3daafe3b4186f6b6457e090600090a35050565b634e487b7160e01b600052604160045260246000fd5b600181811c908216806200013557607f821691505b6020821081036200015657634e487b7160e01b600052602260045260246000fd5b50919050565b601f821115620001aa57600081815260208120601f850160051c81016020861015620001855750805b601f850160051c820191505b81811015620001a65782815560010162000191565b5050505b505050565b81516001600160401b03811115620001cb57620001cb6200010a565b620001e381620001dc845462000120565b846200015c565b602080601f8311600181146200021b5760008415620002025750858301515b600019600386901b1c1916600185901b178555620001a6565b600085815260208120601f198616915b828110156200024c578886015182559484019460019091019084016200022b565b50858210156200026b5787850151600019600388901b60f8161c191681555b5050505050600190811b01905550565b611b4f806200028b6000396000f3fe608060405234801561001057600080fd5b506004361061016c5760003560e01c806370a08231116100cd578063b88d4fde11610081578063e985e9c511610066578063e985e9c5146102ec578063f2fde38b14610328578063f85aafbd1461033b57600080fd5b8063b88d4fde146102c6578063c87b56dd146102d957600080fd5b80638da5cb5b116100b25780638da5cb5b1461029a57806395d89b41146102ab578063a22cb465146102b357600080fd5b806370a082311461027f578063715018a61461029257600080fd5b8063099c84631161012457806323b872dd1161010957806323b872dd1461024657806342842e0e146102595780636352211e1461026c57600080fd5b8063099c84631461021257806314fe83f81461023357600080fd5b806306fdde031161015557806306fdde03146101bd578063081812fc146101d2578063095ea7b3146101fd57600080fd5b806301ffc9a714610171578063036a1c2214610199575b600080fd5b61018461017f3660046114ec565b61035b565b60405190151581526020015b60405180910390f35b6101ac6101a7366004611509565b6103f8565b604051610190959493929190611572565b6101c561053f565b60405161019091906115b7565b6101e56101e0366004611509565b6105d1565b6040516001600160a01b039091168152602001610190565b61021061020b3660046115e6565b6105fa565b005b610225610220366004611659565b610609565b604051908152602001610190565b610210610241366004611509565b610785565b6102106102543660046116ed565b61083c565b6102106102673660046116ed565b6108e0565b6101e561027a366004611509565b610900565b61022561028d366004611729565b61090b565b61021061096c565b6006546001600160a01b03166101e5565b6101c5610980565b6102106102c1366004611744565b61098f565b6102106102d4366004611796565b61099a565b6101c56102e7366004611509565b6109b1565b6101846102fa366004611872565b6001600160a01b03918216600090815260056020908152604080832093909416825291909152205460ff1690565b610210610336366004611729565b610a26565b61034e610349366004611509565b610a7d565b60405161019091906118a5565b60006001600160e01b031982167f80ac58cd0000000000000000000000000000000000000000000000000000000014806103be57506001600160e01b031982167f5b5e139f00000000000000000000000000000000000000000000000000000000145b806103f257507f01ffc9a7000000000000000000000000000000000000000000000000000000006001600160e01b03198316145b92915050565b6008602052600090815260409020805460018201805491929161041a90611907565b80601f016020809104026020016040519081016040528092919081815260200182805461044690611907565b80156104935780601f1061046857610100808354040283529160200191610493565b820191906000526020600020905b81548152906001019060200180831161047657829003601f168201915b50505050600283015460038401546004850180549495929460ff9092169350906104bc90611907565b80601f01602080910402602001604051908101604052809291908181526020018280546104e890611907565b80156105355780601f1061050a57610100808354040283529160200191610535565b820191906000526020600020905b81548152906001019060200180831161051857829003601f168201915b5050505050905085565b60606000805461054e90611907565b80601f016020809104026020016040519081016040528092919081815260200182805461057a90611907565b80156105c75780601f1061059c576101008083540402835291602001916105c7565b820191906000526020600020905b8154815290600101906020018083116105aa57829003601f168201915b5050505050905090565b60006105dc82610c85565b506000828152600460205260409020546001600160a01b03166103f2565b610605828233610cbe565b5050565b6000610613610ccb565b600780546000918261062483611957565b9190505590506106348982610d11565b6040518060a0016040528089815260200188888080601f01602080910402602001604051908101604052809392919081815260200183838082843760009201919091525050509082525060200161068b8742611970565b815260200160001515815260200185858080601f0160208091040260200160405190810160405280939291908181526020018383808284376000920182905250939094525050838152600860209081526040909120835181559083015190915060018201906106fa90826119d1565b5060408201516002820155606082015160038201805460ff19169115159190911790556080820151600482019061073190826119d1565b50905050886001600160a01b0316817f3d33d1076da5ff846213366be62cdb31e30a7c72f55e923f3a76a7623330af128a60405161077191815260200190565b60405180910390a398975050505050505050565b61078d610ccb565b6000818152600260205260409020546001600160a01b03166107f65760405162461bcd60e51b815260206004820152601460248201527f546f6b656e20646f6573206e6f7420657869737400000000000000000000000060448201526064015b60405180910390fd5b600081815260086020526040808220600301805460ff191660011790555182917f4f4019213d198a6b2698d51c79895fa6c7e5a5c79e4f5c04f3285b44c24d18d691a250565b6001600160a01b03821661086657604051633250574960e11b8152600060048201526024016107ed565b6000610873838333610d2b565b9050836001600160a01b0316816001600160a01b0316146108da576040517f64283d7b0000000000000000000000000000000000000000000000000000000081526001600160a01b03808616600483015260248201849052821660448201526064016107ed565b50505050565b6108fb8383836040518060200160405280600081525061099a565b505050565b60006103f282610c85565b60006001600160a01b038216610950576040517f89c62b64000000000000000000000000000000000000000000000000000000008152600060048201526024016107ed565b506001600160a01b031660009081526003602052604090205490565b610974610ccb565b61097e6000610e31565b565b60606001805461054e90611907565b610605338383610e90565b6109a584848461083c565b6108da84848484610f48565b60606109bc82610c85565b5060006109d460408051602081019091526000815290565b905060008151116109f45760405180602001604052806000815250610a1f565b806109fe84611071565b604051602001610a0f929190611a91565b6040516020818303038152906040525b9392505050565b610a2e610ccb565b6001600160a01b038116610a71576040517f1e4fbdf7000000000000000000000000000000000000000000000000000000008152600060048201526024016107ed565b610a7a81610e31565b50565b610ab16040518060a00160405280600081526020016060815260200160008152602001600015158152602001606081525090565b6000828152600260205260409020546001600160a01b0316610b155760405162461bcd60e51b815260206004820152601460248201527f546f6b656e20646f6573206e6f7420657869737400000000000000000000000060448201526064016107ed565b600860008381526020019081526020016000206040518060a001604052908160008201548152602001600182018054610b4d90611907565b80601f0160208091040260200160405190810160405280929190818152602001828054610b7990611907565b8015610bc65780601f10610b9b57610100808354040283529160200191610bc6565b820191906000526020600020905b815481529060010190602001808311610ba957829003601f168201915b505050918352505060028201546020820152600382015460ff1615156040820152600482018054606090920191610bfc90611907565b80601f0160208091040260200160405190810160405280929190818152602001828054610c2890611907565b8015610c755780601f10610c4a57610100808354040283529160200191610c75565b820191906000526020600020905b815481529060010190602001808311610c5857829003601f168201915b5050505050815250509050919050565b6000818152600260205260408120546001600160a01b0316806103f257604051637e27328960e01b8152600481018490526024016107ed565b6108fb8383836001611111565b6006546001600160a01b0316331461097e576040517f118cdaa70000000000000000000000000000000000000000000000000000000081523360048201526024016107ed565b61060582826040518060200160405280600081525061125c565b6000828152600260205260408120546001600160a01b0390811690831615610d5857610d58818486611273565b6001600160a01b03811615610d9657610d75600085600080611111565b6001600160a01b038116600090815260036020526040902080546000190190555b6001600160a01b03851615610dc5576001600160a01b0385166000908152600360205260409020805460010190555b600084815260026020526040808220805473ffffffffffffffffffffffffffffffffffffffff19166001600160a01b0389811691821790925591518793918516917fddf252ad1be2c89b69c2b068fc378daa952ba7f163c4a11628f55a4df523b3ef91a4949350505050565b600680546001600160a01b0383811673ffffffffffffffffffffffffffffffffffffffff19831681179093556040519116919082907f8be0079c531659141344cd1fd0a4f28419497f9722a3daafe3b4186f6b6457e090600090a35050565b6001600160a01b038216610edb576040517f5b08ba180000000000000000000000000000000000000000000000000000000081526001600160a01b03831660048201526024016107ed565b6001600160a01b03838116600081815260056020908152604080832094871680845294825291829020805460ff191686151590811790915591519182527f17307eab39ab6107e8899845ad3d59bd9653f200f220920489ca2b5937696c31910160405180910390a3505050565b6001600160a01b0383163b156108da57604051630a85bd0160e11b81526001600160a01b0384169063150b7a0290610f8a903390889087908790600401611ac0565b6020604051808303816000875af1925050508015610fc5575060408051601f3d908101601f19168201909252610fc291810190611afc565b60015b61102e573d808015610ff3576040519150601f19603f3d011682016040523d82523d6000602084013e610ff8565b606091505b50805160000361102657604051633250574960e11b81526001600160a01b03851660048201526024016107ed565b805181602001fd5b6001600160e01b03198116630a85bd0160e11b1461106a57604051633250574960e11b81526001600160a01b03851660048201526024016107ed565b5050505050565b6060600061107e836112f0565b600101905060008167ffffffffffffffff81111561109e5761109e611780565b6040519080825280601f01601f1916602001820160405280156110c8576020820181803683370190505b5090508181016020015b600019017f3031323334353637383961626364656600000000000000000000000000000000600a86061a8153600a85049450846110d257509392505050565b808061112557506001600160a01b03821615155b1561121f57600061113584610c85565b90506001600160a01b038316158015906111615750826001600160a01b0316816001600160a01b031614155b801561119357506001600160a01b0380821660009081526005602090815260408083209387168352929052205460ff16155b156111d5576040517fa9fbf51f0000000000000000000000000000000000000000000000000000000081526001600160a01b03841660048201526024016107ed565b811561121d5783856001600160a01b0316826001600160a01b03167f8c5be1e5ebec7d5bd14f71427d1e84f3dd0314c0f7b2291e5b200ac8c7c3b92560405160405180910390a45b505b50506000908152600460205260409020805473ffffffffffffffffffffffffffffffffffffffff19166001600160a01b0392909216919091179055565b61126683836113d2565b6108fb6000848484610f48565b61127e838383611450565b6108fb576001600160a01b0383166112ac57604051637e27328960e01b8152600481018290526024016107ed565b6040517f177e802f0000000000000000000000000000000000000000000000000000000081526001600160a01b0383166004820152602481018290526044016107ed565b6000807a184f03e93ff9f4daa797ed6e38ed64bf6a1f0100000000000000008310611339577a184f03e93ff9f4daa797ed6e38ed64bf6a1f010000000000000000830492506040015b6d04ee2d6d415b85acef81000000008310611365576d04ee2d6d415b85acef8100000000830492506020015b662386f26fc10000831061138357662386f26fc10000830492506010015b6305f5e100831061139b576305f5e100830492506008015b61271083106113af57612710830492506004015b606483106113c1576064830492506002015b600a83106103f25760010192915050565b6001600160a01b0382166113fc57604051633250574960e11b8152600060048201526024016107ed565b600061140a83836000610d2b565b90506001600160a01b038116156108fb576040517f73c6ac6e000000000000000000000000000000000000000000000000000000008152600060048201526024016107ed565b60006001600160a01b038316158015906114ce5750826001600160a01b0316846001600160a01b031614806114aa57506001600160a01b0380851660009081526005602090815260408083209387168352929052205460ff165b806114ce57506000828152600460205260409020546001600160a01b038481169116145b949350505050565b6001600160e01b031981168114610a7a57600080fd5b6000602082840312156114fe57600080fd5b8135610a1f816114d6565b60006020828403121561151b57600080fd5b5035919050565b60005b8381101561153d578181015183820152602001611525565b50506000910152565b6000815180845261155e816020860160208601611522565b601f01601f19169290920160200192915050565b85815260a06020820152600061158b60a0830187611546565b856040840152841515606084015282810360808401526115ab8185611546565b98975050505050505050565b602081526000610a1f6020830184611546565b80356001600160a01b03811681146115e157600080fd5b919050565b600080604083850312156115f957600080fd5b611602836115ca565b946020939093013593505050565b60008083601f84011261162257600080fd5b50813567ffffffffffffffff81111561163a57600080fd5b60208301915083602082850101111561165257600080fd5b9250929050565b600080600080600080600060a0888a03121561167457600080fd5b61167d886115ca565b965060208801359550604088013567ffffffffffffffff808211156116a157600080fd5b6116ad8b838c01611610565b909750955060608a0135945060808a01359150808211156116cd57600080fd5b506116da8a828b01611610565b989b979a50959850939692959293505050565b60008060006060848603121561170257600080fd5b61170b846115ca565b9250611719602085016115ca565b9150604084013590509250925092565b60006020828403121561173b57600080fd5b610a1f826115ca565b6000806040838503121561175757600080fd5b611760836115ca565b91506020830135801515811461177557600080fd5b809150509250929050565b634e487b7160e01b600052604160045260246000fd5b600080600080608085870312156117ac57600080fd5b6117b5856115ca565b93506117c3602086016115ca565b925060408501359150606085013567ffffffffffffffff808211156117e757600080fd5b818701915087601f8301126117fb57600080fd5b81358181111561180d5761180d611780565b604051601f8201601f19908116603f0116810190838211818310171561183557611835611780565b816040528281528a602084870101111561184e57600080fd5b82602086016020830137600060208483010152809550505050505092959194509250565b6000806040838503121561188557600080fd5b61188e836115ca565b915061189c602084016115ca565b90509250929050565b60208152815160208201526000602083015160a060408401526118cb60c0840182611546565b9050604084015160608401526060840151151560808401526080840151601f198483030160a08501526118fe8282611546565b95945050505050565b600181811c9082168061191b57607f821691505b60208210810361193b57634e487b7160e01b600052602260045260246000fd5b50919050565b634e487b7160e01b600052601160045260246000fd5b60006001820161196957611969611941565b5060010190565b808201808211156103f2576103f2611941565b601f8211156108fb57600081815260208120601f850160051c810160208610156119aa5750805b601f850160051c820191505b818110156119c9578281556001016119b6565b505050505050565b815167ffffffffffffffff8111156119eb576119eb611780565b6119ff816119f98454611907565b84611983565b602080601f831160018114611a345760008415611a1c5750858301515b600019600386901b1c1916600185901b1785556119c9565b600085815260208120601f198616915b82811015611a6357888601518255948401946001909101908401611a44565b5085821015611a815787850151600019600388901b60f8161c191681555b5050505050600190811b01905550565b60008351611aa3818460208801611522565b835190830190611ab7818360208801611522565b01949350505050565b60006001600160a01b03808716835280861660208401525083604083015260806060830152611af26080830184611546565b9695505050505050565b600060208284031215611b0e57600080fd5b8151610a1f816114d656fea26469706673582212200b80a966db19e4f6fdda48ee206d707463d17ac5485defd55e89194259db406864736f6c63430008140033","opcodes":"PUSH1 0x80 PUSH1 0x40 MSTORE CALLVALUE DUP1 ISZERO PUSH3 0x11 JUMPI PUSH1 0x0 DUP1 REVERT JUMPDEST POP CALLER PUSH1 0x40 MLOAD DUP1 PUSH1 0x40 ADD PUSH1 0x40 MSTORE DUP1 PUSH1 0xD DUP2 MSTORE PUSH1 0x20 ADD PUSH13 0x10D85C989BDB8810DC99591A5D PUSH1 0x9A SHL DUP2 MSTORE POP PUSH1 0x40 MLOAD DUP1 PUSH1 0x40 ADD PUSH1 0x40 MSTORE DUP1 PUSH1 0x2 DUP2 MSTORE PUSH1 0x20 ADD PUSH2 0x4343 PUSH1 0xF0 SHL DUP2 MSTORE POP DUP2 PUSH1 0x0 SWAP1 DUP2 PUSH3 0x65 SWAP2 SWAP1 PUSH3 0x1AF JUMP JUMPDEST POP PUSH1 0x1 PUSH3 0x74 DUP3 DUP3 PUSH3 0x1AF JUMP JUMPDEST POP POP POP PUSH1 0x1 PUSH1 0x1 PUSH1 0xA0 SHL SUB DUP2 AND PUSH3 0xA6 JUMPI PUSH1 0x40 MLOAD PUSH4 0x1E4FBDF7 PUSH1 0xE0 SHL DUP2 MSTORE PUSH1 0x0 PUSH1 0x4 DUP3 ADD MSTORE PUSH1 0x24 ADD PUSH1 0x40 MLOAD DUP1 SWAP2 SUB SWAP1 REVERT JUMPDEST PUSH3 0xB1 DUP2 PUSH3 0xB8 JUMP JUMPDEST POP PUSH3 0x27B JUMP JUMPDEST PUSH1 0x6 DUP1 SLOAD PUSH1 0x1 PUSH1 0x1 PUSH1 0xA0 SHL SUB DUP4 DUP2 AND PUSH1 0x1 PUSH1 0x1 PUSH1 0xA0 SHL SUB NOT DUP4 AND DUP2 OR SWAP1 SWAP4 SSTORE PUSH1 0x40 MLOAD SWAP2 AND SWAP2 SWAP1 DUP3 SWAP1 PUSH32 0x8BE0079C531659141344CD1FD0A4F28419497F9722A3DAAFE3B4186F6B6457E0 SWAP1 PUSH1 0x0 SWAP1 LOG3 POP POP JUMP JUMPDEST PUSH4 0x4E487B71 PUSH1 0xE0 SHL PUSH1 0x0 MSTORE PUSH1 0x41 PUSH1 0x4 MSTORE PUSH1 0x24 PUSH1 0x0 REVERT JUMPDEST PUSH1 0x1 DUP2 DUP2 SHR SWAP1 DUP3 AND DUP1 PUSH3 0x135 JUMPI PUSH1 0x7F DUP3 AND SWAP2 POP JUMPDEST PUSH1 0x20 DUP3 LT DUP2 SUB PUSH3 0x156 JUMPI PUSH4 0x4E487B71 PUSH1 0xE0 SHL PUSH1 0x0 MSTORE PUSH1 0x22 PUSH1 0x4 MSTORE PUSH1 0x24 PUSH1 0x0 REVERT JUMPDEST POP SWAP2 SWAP1 POP JUMP JUMPDEST PUSH1 0x1F DUP3 GT ISZERO PUSH3 0x1AA JUMPI PUSH1 0x0 DUP2 DUP2 MSTORE PUSH1 0x20 DUP2 KECCAK256 PUSH1 0x1F DUP6 ADD PUSH1 0x5 SHR DUP2 ADD PUSH1 0x20 DUP7 LT ISZERO PUSH3 0x185 JUMPI POP DUP1 JUMPDEST PUSH1 0x1F DUP6 ADD PUSH1 0x5 SHR DUP3 ADD SWAP2 POP JUMPDEST DUP2 DUP2 LT ISZERO PUSH3 0x1A6 JUMPI DUP3 DUP2 SSTORE PUSH1 0x1 ADD PUSH3 0x191 JUMP JUMPDEST POP POP POP JUMPDEST POP POP POP JUMP JUMPDEST DUP2 MLOAD PUSH1 0x1 PUSH1 0x1 PUSH1 0x40 SHL SUB DUP2 GT ISZERO PUSH3 0x1CB JUMPI PUSH3 0x1CB PUSH3 0x10A JUMP JUMPDEST PUSH3 0x1E3 DUP2 PUSH3 0x1DC DUP5 SLOAD PUSH3 0x120 JUMP JUMPDEST DUP5 PUSH3 0x15C JUMP JUMPDEST PUSH1 0x20 DUP1 PUSH1 0x1F DUP4 GT PUSH1 0x1 DUP2 EQ PUSH3 0x21B JUMPI PUSH1 0x0 DUP5 ISZERO PUSH3 0x202 JUMPI POP DUP6 DUP4 ADD MLOAD JUMPDEST PUSH1 0x0 NOT PUSH1 0x3 DUP7 SWAP1 SHL SHR NOT AND PUSH1 0x1 DUP6 SWAP1 SHL OR DUP6 SSTORE PUSH3 0x1A6 JUMP JUMPDEST PUSH1 0x0 DUP6 DUP2 MSTORE PUSH1 0x20 DUP2 KECCAK256 PUSH1 0x1F NOT DUP7 AND SWAP2 JUMPDEST DUP3 DUP2 LT ISZERO PUSH3 0x24C JUMPI DUP9 DUP7 ADD MLOAD DUP3 SSTORE SWAP5 DUP5 ADD SWAP5 PUSH1 0x1 SWAP1 SWAP2 ADD SWAP1 DUP5 ADD PUSH3 0x22B JUMP JUMPDEST POP DUP6 DUP3 LT ISZERO PUSH3 0x26B JUMPI DUP8 DUP6 ADD MLOAD PUSH1 0x0 NOT PUSH1 0x3 DUP9 SWAP1 SHL PUSH1 0xF8 AND SHR NOT AND DUP2 SSTORE JUMPDEST POP POP POP POP POP PUSH1 0x1 SWAP1 DUP2 SHL ADD SWAP1 SSTORE POP JUMP JUMPDEST PUSH2 0x1B4F DUP1 PUSH3 0x28B PUSH1 0x0 CODECOPY PUSH1 0x0 RETURN INVALID PUSH1 0x80 PUSH1 0x40 MSTORE CALLVALUE DUP1 ISZERO PUSH2 0x10 JUMPI PUSH1 0x0 DUP1 REVERT JUMPDEST POP PUSH1 0x4 CALLDATASIZE LT PUSH2 0x16C JUMPI PUSH1 0x0 CALLDATALOAD PUSH1 0xE0 SHR DUP1 PUSH4 0x70A08231 GT PUSH2 0xCD JUMPI DUP1 PUSH4 0xB88D4FDE GT PUSH2 0x81 JUMPI DUP1 PUSH4 0xE985E9C5 GT PUSH2 0x66 JUMPI DUP1 PUSH4 0xE985E9C5 EQ PUSH2 0x2EC JUMPI DUP1 PUSH4 0xF2FDE38B EQ PUSH2 0x328 JUMPI DUP1 PUSH4 0xF85AAFBD EQ PUSH2 0x33B JUMPI PUSH1 0x0 DUP1 REVERT JUMPDEST DUP1 PUSH4 0xB88D4FDE EQ PUSH2 0x2C6 JUMPI DUP1 PUSH4 0xC87B56DD EQ PUSH2 0x2D9 JUMPI PUSH1 0x0 DUP1 REVERT JUMPDEST DUP1 PUSH4 0x8DA5CB5B GT PUSH2 0xB2 JUMPI DUP1 PUSH4 0x8DA5CB5B EQ PUSH2 0x29A JUMPI DUP1 PUSH4 0x95D89B41 EQ PUSH2 0x2AB JUMPI DUP1 PUSH4 0xA22CB465 EQ PUSH2 0x2B3 JUMPI PUSH1 0x0 DUP1 REVERT JUMPDEST DUP1 PUSH4 0x70A08231 EQ PUSH2 0x27F JUMPI DUP1 PUSH4 0x715018A6 EQ PUSH2 0x292 JUMPI PUSH1 0x0 DUP1 REVERT JUMPDEST DUP1 PUSH4 0x99C8463 GT PUSH2 0x124 JUMPI DUP1 PUSH4 0x23B872DD GT PUSH2 0x109 JUMPI DUP1 PUSH4 0x23B872DD EQ PUSH2 0x246 JUMPI DUP1 PUSH4 0x42842E0E EQ PUSH2 0x259 JUMPI DUP1 PUSH4 0x6352211E EQ PUSH2 0x26C JUMPI PUSH1 0x0 DUP1 REVERT JUMPDEST DUP1 PUSH4 0x99C8463 EQ PUSH2 0x212 JUMPI DUP1 PUSH4 0x14FE83F8 EQ PUSH2 0x233 JUMPI PUSH1 0x0 DUP1 REVERT JUMPDEST DUP1 PUSH4 0x6FDDE03 GT PUSH2 0x155 JUMPI DUP1 PUSH4 0x6FDDE03 EQ PUSH2 0x1BD JUMPI DUP1 PUSH4 0x81812FC EQ PUSH2 0x1D2 JUMPI DUP1 PUSH4 0x95EA7B3 EQ PUSH2 0x1FD JUMPI PUSH1 0x0 DUP1 REVERT JUMPDEST DUP1 PUSH4 0x1FFC9A7 EQ PUSH2 0x171 JUMPI DUP1 PUSH4 0x36A1C22 EQ PUSH2 0x199 JUMPI JUMPDEST PUSH1 0x0 DUP1 REVERT JUMPDEST PUSH2 0x184 PUSH2 0x17F CALLDATASIZE PUSH1 0x4 PUSH2 0x14EC JUMP JUMPDEST PUSH2 0x35B JUMP JUMPDEST PUSH1 0x40 MLOAD SWAP1 ISZERO ISZERO DUP2 MSTORE PUSH1 0x20 ADD JUMPDEST PUSH1 0x40 MLOAD DUP1 SWAP2 SUB SWAP1 RETURN JUMPDEST PUSH2 0x1AC PUSH2 0x1A7 CALLDATASIZE PUSH1 0x4 PUSH2 0x1509 JUMP JUMPDEST PUSH2 0x3F8 JUMP JUMPDEST PUSH1 0x40 MLOAD PUSH2 0x190 SWAP6 SWAP5 SWAP4 SWAP3 SWAP2 SWAP1 PUSH2 0x1572 JUMP JUMPDEST PUSH2 0x1C5 PUSH2 0x53F JUMP JUMPDEST PUSH1 0x40 MLOAD PUSH2 0x190 SWAP2 SWAP1 PUSH2 0x15B7 JUMP JUMPDEST PUSH2 0x1E5 PUSH2 0x1E0 CALLDATASIZE PUSH1 0x4 PUSH2 0x1509 JUMP JUMPDEST PUSH2 0x5D1 JUMP JUMPDEST PUSH1 0x40 MLOAD PUSH1 0x1 PUSH1 0x1 PUSH1 0xA0 SHL SUB SWAP1 SWAP2 AND DUP2 MSTORE PUSH1 0x20 ADD PUSH2 0x190 JUMP JUMPDEST PUSH2 0x210 PUSH2 0x20B CALLDATASIZE PUSH1 0x4 PUSH2 0x15E6 JUMP JUMPDEST PUSH2 0x5FA JUMP JUMPDEST STOP JUMPDEST PUSH2 0x225 PUSH2 0x220 CALLDATASIZE PUSH1 0x4 PUSH2 0x1659 JUMP JUMPDEST PUSH2 0x609 JUMP JUMPDEST PUSH1 0x40 MLOAD SWAP1 DUP2 MSTORE PUSH1 0x20 ADD PUSH2 0x190 JUMP JUMPDEST PUSH2 0x210 PUSH2 0x241 CALLDATASIZE PUSH1 0x4 PUSH2 0x1509 JUMP JUMPDEST PUSH2 0x785 JUMP JUMPDEST PUSH2 0x210 PUSH2 0x254 CALLDATASIZE PUSH1 0x4 PUSH2 0x16ED JUMP JUMPDEST PUSH2 0x83C JUMP JUMPDEST PUSH2 0x210 PUSH2 0x267 CALLDATASIZE PUSH1 0x4 PUSH2 0x16ED JUMP JUMPDEST PUSH2 0x8E0 JUMP JUMPDEST PUSH2 0x1E5 PUSH2 0x27A CALLDATASIZE PUSH1 0x4 PUSH2 0x1509 JUMP JUMPDEST PUSH2 0x900 JUMP JUMPDEST PUSH2 0x225 PUSH2 0x28D CALLDATASIZE PUSH1 0x4 PUSH2 0x1729 JUMP JUMPDEST PUSH2 0x90B JUMP JUMPDEST PUSH2 0x210 PUSH2 0x96C JUMP JUMPDEST PUSH1 0x6 SLOAD PUSH1 0x1 PUSH1 0x1 PUSH1 0xA0 SHL SUB AND PUSH2 0x1E5 JUMP JUMPDEST PUSH2 0x1C5 PUSH2 0x980 JUMP JUMPDEST PUSH2 0x210 PUSH2 0x2C1 CALLDATASIZE PUSH1 0x4 PUSH2 0x1744 JUMP JUMPDEST PUSH2 0x98F JUMP JUMPDEST PUSH2 0x210 PUSH2 0x2D4 CALLDATASIZE PUSH1 0x4 PUSH2 0x1796 JUMP JUMPDEST PUSH2 0x99A JUMP JUMPDEST PUSH2 0x1C5 PUSH2 0x2E7 CALLDATASIZE PUSH1 0x4 PUSH2 0x1509 JUMP JUMPDEST PUSH2 0x9B1 JUMP JUMPDEST PUSH2 0x184 PUSH2 0x2FA CALLDATASIZE PUSH1 0x4 PUSH2 0x1872 JUMP JUMPDEST PUSH1 0x1 PUSH1 0x1 PUSH1 0xA0 SHL SUB SWAP2 DUP3 AND PUSH1 0x0 SWAP1 DUP2 MSTORE PUSH1 0x5 PUSH1 0x20 SWAP1 DUP2 MSTORE PUSH1 0x40 DUP1 DUP4 KECCAK256 SWAP4 SWAP1 SWAP5 AND DUP3 MSTORE SWAP2 SWAP1 SWAP2 MSTORE KECCAK256 SLOAD PUSH1 0xFF AND SWAP1 JUMP JUMPDEST PUSH2 0x210 PUSH2 0x336 CALLDATASIZE PUSH1 0x4 PUSH2 0x1729 JUMP JUMPDEST PUSH2 0xA26 JUMP JUMPDEST PUSH2 0x34E PUSH2 0x349 CALLDATASIZE PUSH1 0x4 PUSH2 0x1509 JUMP JUMPDEST PUSH2 0xA7D JUMP JUMPDEST PUSH1 0x40 MLOAD PUSH2 0x190 SWAP2 SWAP1 PUSH2 0x18A5 JUMP JUMPDEST PUSH1 0x0 PUSH1 0x1 PUSH1 0x1 PUSH1 0xE0 SHL SUB NOT DUP3 AND PUSH32 0x80AC58CD00000000000000000000000000000000000000000000000000000000 EQ DUP1 PUSH2 0x3BE JUMPI POP PUSH1 0x1 PUSH1 0x1 PUSH1 0xE0 SHL SUB NOT DUP3 AND PUSH32 0x5B5E139F00000000000000000000000000000000000000000000000000000000 EQ JUMPDEST DUP1 PUSH2 0x3F2 JUMPI POP PUSH32 0x1FFC9A700000000000000000000000000000000000000000000000000000000 PUSH1 0x1 PUSH1 0x1 PUSH1 0xE0 SHL SUB NOT DUP4 AND EQ JUMPDEST SWAP3 SWAP2 POP POP JUMP JUMPDEST PUSH1 0x8 PUSH1 0x20 MSTORE PUSH1 0x0 SWAP1 DUP2 MSTORE PUSH1 0x40 SWAP1 KECCAK256 DUP1 SLOAD PUSH1 0x1 DUP3 ADD DUP1 SLOAD SWAP2 SWAP3 SWAP2 PUSH2 0x41A SWAP1 PUSH2 0x1907 JUMP JUMPDEST DUP1 PUSH1 0x1F ADD PUSH1 0x20 DUP1 SWAP2 DIV MUL PUSH1 0x20 ADD PUSH1 0x40 MLOAD SWAP1 DUP2 ADD PUSH1 0x40 MSTORE DUP1 SWAP3 SWAP2 SWAP1 DUP2 DUP2 MSTORE PUSH1 0x20 ADD DUP3 DUP1 SLOAD PUSH2 0x446 SWAP1 PUSH2 0x1907 JUMP JUMPDEST DUP1 ISZERO PUSH2 0x493 JUMPI DUP1 PUSH1 0x1F LT PUSH2 0x468 JUMPI PUSH2 0x100 DUP1 DUP4 SLOAD DIV MUL DUP4 MSTORE SWAP2 PUSH1 0x20 ADD SWAP2 PUSH2 0x493 JUMP JUMPDEST DUP3 ADD SWAP2 SWAP1 PUSH1 0x0 MSTORE PUSH1 0x20 PUSH1 0x0 KECCAK256 SWAP1 JUMPDEST DUP2 SLOAD DUP2 MSTORE SWAP1 PUSH1 0x1 ADD SWAP1 PUSH1 0x20 ADD DUP1 DUP4 GT PUSH2 0x476 JUMPI DUP3 SWAP1 SUB PUSH1 0x1F AND DUP3 ADD SWAP2 JUMPDEST POP POP POP POP PUSH1 0x2 DUP4 ADD SLOAD PUSH1 0x3 DUP5 ADD SLOAD PUSH1 0x4 DUP6 ADD DUP1 SLOAD SWAP5 SWAP6 SWAP3 SWAP5 PUSH1 0xFF SWAP1 SWAP3 AND SWAP4 POP SWAP1 PUSH2 0x4BC SWAP1 PUSH2 0x1907 JUMP JUMPDEST DUP1 PUSH1 0x1F ADD PUSH1 0x20 DUP1 SWAP2 DIV MUL PUSH1 0x20 ADD PUSH1 0x40 MLOAD SWAP1 DUP2 ADD PUSH1 0x40 MSTORE DUP1 SWAP3 SWAP2 SWAP1 DUP2 DUP2 MSTORE PUSH1 0x20 ADD DUP3 DUP1 SLOAD PUSH2 0x4E8 SWAP1 PUSH2 0x1907 JUMP JUMPDEST DUP1 ISZERO PUSH2 0x535 JUMPI DUP1 PUSH1 0x1F LT PUSH2 0x50A JUMPI PUSH2 0x100 DUP1 DUP4 SLOAD DIV MUL DUP4 MSTORE SWAP2 PUSH1 0x20 ADD SWAP2 PUSH2 0x535 JUMP JUMPDEST DUP3 ADD SWAP2 SWAP1 PUSH1 0x0 MSTORE PUSH1 0x20 PUSH1 0x0 KECCAK256 SWAP1 JUMPDEST DUP2 SLOAD DUP2 MSTORE SWAP1 PUSH1 0x1 ADD SWAP1 PUSH1 0x20 ADD DUP1 DUP4 GT PUSH2 0x518 JUMPI DUP3 SWAP1 SUB PUSH1 0x1F AND DUP3 ADD SWAP2 JUMPDEST POP POP POP POP POP SWAP1 POP DUP6 JUMP JUMPDEST PUSH1 0x60 PUSH1 0x0 DUP1 SLOAD PUSH2 0x54E SWAP1 PUSH2 0x1907 JUMP JUMPDEST DUP1 PUSH1 0x1F ADD PUSH1 0x20 DUP1 SWAP2 DIV MUL PUSH1 0x20 ADD PUSH1 0x40 MLOAD SWAP1 DUP2 ADD PUSH1 0x40 MSTORE DUP1 SWAP3 SWAP2 SWAP1 DUP2 DUP2 MSTORE PUSH1 0x20 ADD DUP3 DUP1 SLOAD PUSH2 0x57A SWAP1 PUSH2 0x1907 JUMP JUMPDEST DUP1 ISZERO PUSH2 0x5C7 JUMPI DUP1 PUSH1 0x1F LT PUSH2 0x59C JUMPI PUSH2 0x100 DUP1 DUP4 SLOAD DIV MUL DUP4 MSTORE SWAP2 PUSH1 0x20 ADD SWAP2 PUSH2 0x5C7 JUMP JUMPDEST DUP3 ADD SWAP2 SWAP1 PUSH1 0x0 MSTORE PUSH1 0x20 PUSH1 0x0 KECCAK256 SWAP1 JUMPDEST DUP2 SLOAD DUP2 MSTORE SWAP1 PUSH1 0x1 ADD SWAP1 PUSH1 0x20 ADD DUP1 DUP4 GT PUSH2 0x5AA JUMPI DUP3 SWAP1 SUB PUSH1 0x1F AND DUP3 ADD SWAP2 JUMPDEST POP POP POP POP POP SWAP1 POP SWAP1 JUMP JUMPDEST PUSH1 0x0 PUSH2 0x5DC DUP3 PUSH2 0xC85 JUMP JUMPDEST POP PUSH1 0x0 DUP3 DUP2 MSTORE PUSH1 0x4 PUSH1 0x20 MSTORE PUSH1 0x40 SWAP1 KECCAK256 SLOAD PUSH1 0x1 PUSH1 0x1 PUSH1 0xA0 SHL SUB AND PUSH2 0x3F2 JUMP JUMPDEST PUSH2 0x605 DUP3 DUP3 CALLER PUSH2 0xCBE JUMP JUMPDEST POP POP JUMP JUMPDEST PUSH1 0x0 PUSH2 0x613 PUSH2 0xCCB JUMP JUMPDEST PUSH1 0x7 DUP1 SLOAD PUSH1 0x0 SWAP2 DUP3 PUSH2 0x624 DUP4 PUSH2 0x1957 JUMP JUMPDEST SWAP2 SWAP1 POP SSTORE SWAP1 POP PUSH2 0x634 DUP10 DUP3 PUSH2 0xD11 JUMP JUMPDEST PUSH1 0x40 MLOAD DUP1 PUSH1 0xA0 ADD PUSH1 0x40 MSTORE DUP1 DUP10 DUP2 MSTORE PUSH1 0x20 ADD DUP9 DUP9 DUP1 DUP1 PUSH1 0x1F ADD PUSH1 0x20 DUP1 SWAP2 DIV MUL PUSH1 0x20 ADD PUSH1 0x40 MLOAD SWAP1 DUP2 ADD PUSH1 0x40 MSTORE DUP1 SWAP4 SWAP3 SWAP2 SWAP1 DUP2 DUP2 MSTORE PUSH1 0x20 ADD DUP4 DUP4 DUP1 DUP3 DUP5 CALLDATACOPY PUSH1 0x0 SWAP3 ADD SWAP2 SWAP1 SWAP2 MSTORE POP POP POP SWAP1 DUP3 MSTORE POP PUSH1 0x20 ADD PUSH2 0x68B DUP8 TIMESTAMP PUSH2 0x1970 JUMP JUMPDEST DUP2 MSTORE PUSH1 0x20 ADD PUSH1 0x0 ISZERO ISZERO DUP2 MSTORE PUSH1 0x20 ADD DUP6 DUP6 DUP1 DUP1 PUSH1 0x1F ADD PUSH1 0x20 DUP1 SWAP2 DIV MUL PUSH1 0x20 ADD PUSH1 0x40 MLOAD SWAP1 DUP2 ADD PUSH1 0x40 MSTORE DUP1 SWAP4 SWAP3 SWAP2 SWAP1 DUP2 DUP2 MSTORE PUSH1 0x20 ADD DUP4 DUP4 DUP1 DUP3 DUP5 CALLDATACOPY PUSH1 0x0 SWAP3 ADD DUP3 SWAP1 MSTORE POP SWAP4 SWAP1 SWAP5 MSTORE POP POP DUP4 DUP2 MSTORE PUSH1 0x8 PUSH1 0x20 SWAP1 DUP2 MSTORE PUSH1 0x40 SWAP1 SWAP2 KECCAK256 DUP4 MLOAD DUP2 SSTORE SWAP1 DUP4 ADD MLOAD SWAP1 SWAP2 POP PUSH1 0x1 DUP3 ADD SWAP1 PUSH2 0x6FA SWAP1 DUP3 PUSH2 0x19D1 JUMP JUMPDEST POP PUSH1 0x40 DUP3 ADD MLOAD PUSH1 0x2 DUP3 ADD SSTORE PUSH1 0x60 DUP3 ADD MLOAD PUSH1 0x3 DUP3 ADD DUP1 SLOAD PUSH1 0xFF NOT AND SWAP2 ISZERO ISZERO SWAP2 SWAP1 SWAP2 OR SWAP1 SSTORE PUSH1 0x80 DUP3 ADD MLOAD PUSH1 0x4 DUP3 ADD SWAP1 PUSH2 0x731 SWAP1 DUP3 PUSH2 0x19D1 JUMP JUMPDEST POP SWAP1 POP POP DUP9 PUSH1 0x1 PUSH1 0x1 PUSH1 0xA0 SHL SUB AND DUP2 PUSH32 0x3D33D1076DA5FF846213366BE62CDB31E30A7C72F55E923F3A76A7623330AF12 DUP11 PUSH1 0x40 MLOAD PUSH2 0x771 SWAP2 DUP2 MSTORE PUSH1 0x20 ADD SWAP1 JUMP JUMPDEST PUSH1 0x40 MLOAD DUP1 SWAP2 SUB SWAP1 LOG3 SWAP9 SWAP8 POP POP POP POP POP POP POP POP JUMP JUMPDEST PUSH2 0x78D PUSH2 0xCCB JUMP JUMPDEST PUSH1 0x0 DUP2 DUP2 MSTORE PUSH1 0x2 PUSH1 0x20 MSTORE PUSH1 0x40 SWAP1 KECCAK256 SLOAD PUSH1 0x1 PUSH1 0x1 PUSH1 0xA0 SHL SUB AND PUSH2 0x7F6 JUMPI PUSH1 0x40 MLOAD PUSH3 0x461BCD PUSH1 0xE5 SHL DUP2 MSTORE PUSH1 0x20 PUSH1 0x4 DUP3 ADD MSTORE PUSH1 0x14 PUSH1 0x24 DUP3 ADD MSTORE PUSH32 0x546F6B656E20646F6573206E6F74206578697374000000000000000000000000 PUSH1 0x44 DUP3 ADD MSTORE PUSH1 0x64 ADD JUMPDEST PUSH1 0x40 MLOAD DUP1 SWAP2 SUB SWAP1 REVERT JUMPDEST PUSH1 0x0 DUP2 DUP2 MSTORE PUSH1 0x8 PUSH1 0x20 MSTORE PUSH1 0x40 DUP1 DUP3 KECCAK256 PUSH1 0x3 ADD DUP1 SLOAD PUSH1 0xFF NOT AND PUSH1 0x1 OR SWAP1 SSTORE MLOAD DUP3 SWAP2 PUSH32 0x4F4019213D198A6B2698D51C79895FA6C7E5A5C79E4F5C04F3285B44C24D18D6 SWAP2 LOG2 POP JUMP JUMPDEST PUSH1 0x1 PUSH1 0x1 PUSH1 0xA0 SHL SUB DUP3 AND PUSH2 0x866 JUMPI PUSH1 0x40 MLOAD PUSH4 0x32505749 PUSH1 0xE1 SHL DUP2 MSTORE PUSH1 0x0 PUSH1 0x4 DUP3 ADD MSTORE PUSH1 0x24 ADD PUSH2 0x7ED JUMP JUMPDEST PUSH1 0x0 PUSH2 0x873 DUP4 DUP4 CALLER PUSH2 0xD2B JUMP JUMPDEST SWAP1 POP DUP4 PUSH1 0x1 PUSH1 0x1 PUSH1 0xA0 SHL SUB AND DUP2 PUSH1 0x1 PUSH1 0x1 PUSH1 0xA0 SHL SUB AND EQ PUSH2 0x8DA JUMPI PUSH1 0x40 MLOAD PUSH32 0x64283D7B00000000000000000000000000000000000000000000000000000000 DUP2 MSTORE PUSH1 0x1 PUSH1 0x1 PUSH1 0xA0 SHL SUB DUP1 DUP7 AND PUSH1 0x4 DUP4 ADD MSTORE PUSH1 0x24 DUP3 ADD DUP5 SWAP1 MSTORE DUP3 AND PUSH1 0x44 DUP3 ADD MSTORE PUSH1 0x64 ADD PUSH2 0x7ED JUMP JUMPDEST POP POP POP POP JUMP JUMPDEST PUSH2 0x8FB DUP4 DUP4 DUP4 PUSH1 0x40 MLOAD DUP1 PUSH1 0x20 ADD PUSH1 0x40 MSTORE DUP1 PUSH1 0x0 DUP2 MSTORE POP PUSH2 0x99A JUMP JUMPDEST POP POP POP JUMP JUMPDEST PUSH1 0x0 PUSH2 0x3F2 DUP3 PUSH2 0xC85 JUMP JUMPDEST PUSH1 0x0 PUSH1 0x1 PUSH1 0x1 PUSH1 0xA0 SHL SUB DUP3 AND PUSH2 0x950 JUMPI PUSH1 0x40 MLOAD PUSH32 0x89C62B6400000000000000000000000000000000000000000000000000000000 DUP2 MSTORE PUSH1 0x0 PUSH1 0x4 DUP3 ADD MSTORE PUSH1 0x24 ADD PUSH2 0x7ED JUMP JUMPDEST POP PUSH1 0x1 PUSH1 0x1 PUSH1 0xA0 SHL SUB AND PUSH1 0x0 SWAP1 DUP2 MSTORE PUSH1 0x3 PUSH1 0x20 MSTORE PUSH1 0x40 SWAP1 KECCAK256 SLOAD SWAP1 JUMP JUMPDEST PUSH2 0x974 PUSH2 0xCCB JUMP JUMPDEST PUSH2 0x97E PUSH1 0x0 PUSH2 0xE31 JUMP JUMPDEST JUMP JUMPDEST PUSH1 0x60 PUSH1 0x1 DUP1 SLOAD PUSH2 0x54E SWAP1 PUSH2 0x1907 JUMP JUMPDEST PUSH2 0x605 CALLER DUP4 DUP4 PUSH2 0xE90 JUMP JUMPDEST PUSH2 0x9A5 DUP5 DUP5 DUP5 PUSH2 0x83C JUMP JUMPDEST PUSH2 0x8DA DUP5 DUP5 DUP5 DUP5 PUSH2 0xF48 JUMP JUMPDEST PUSH1 0x60 PUSH2 0x9BC DUP3 PUSH2 0xC85 JUMP JUMPDEST POP PUSH1 0x0 PUSH2 0x9D4 PUSH1 0x40 DUP1 MLOAD PUSH1 0x20 DUP2 ADD SWAP1 SWAP2 MSTORE PUSH1 0x0 DUP2 MSTORE SWAP1 JUMP JUMPDEST SWAP1 POP PUSH1 0x0 DUP2 MLOAD GT PUSH2 0x9F4 JUMPI PUSH1 0x40 MLOAD DUP1 PUSH1 0x20 ADD PUSH1 0x40 MSTORE DUP1 PUSH1 0x0 DUP2 MSTORE POP PUSH2 0xA1F JUMP JUMPDEST DUP1 PUSH2 0x9FE DUP5 PUSH2 0x1071 JUMP JUMPDEST PUSH1 0x40 MLOAD PUSH1 0x20 ADD PUSH2 0xA0F SWAP3 SWAP2 SWAP1 PUSH2 0x1A91 JUMP JUMPDEST PUSH1 0x40 MLOAD PUSH1 0x20 DUP2 DUP4 SUB SUB DUP2 MSTORE SWAP1 PUSH1 0x40 MSTORE JUMPDEST SWAP4 SWAP3 POP POP POP JUMP JUMPDEST PUSH2 0xA2E PUSH2 0xCCB JUMP JUMPDEST PUSH1 0x1 PUSH1 0x1 PUSH1 0xA0 SHL SUB DUP2 AND PUSH2 0xA71 JUMPI PUSH1 0x40 MLOAD PUSH32 0x1E4FBDF700000000000000000000000000000000000000000000000000000000 DUP2 MSTORE PUSH1 0x0 PUSH1 0x4 DUP3 ADD MSTORE PUSH1 0x24 ADD PUSH2 0x7ED JUMP JUMPDEST PUSH2 0xA7A DUP2 PUSH2 0xE31 JUMP JUMPDEST POP JUMP JUMPDEST PUSH2 0xAB1 PUSH1 0x40 MLOAD DUP1 PUSH1 0xA0 ADD PUSH1 0x40 MSTORE DUP1 PUSH1 0x0 DUP2 MSTORE PUSH1 0x20 ADD PUSH1 0x60 DUP2 MSTORE PUSH1 0x20 ADD PUSH1 0x0 DUP2 MSTORE PUSH1 0x20 ADD PUSH1 0x0 ISZERO ISZERO DUP2 MSTORE PUSH1 0x20 ADD PUSH1 0x60 DUP2 MSTORE POP SWAP1 JUMP JUMPDEST PUSH1 0x0 DUP3 DUP2 MSTORE PUSH1 0x2 PUSH1 0x20 MSTORE PUSH1 0x40 SWAP1 KECCAK256 SLOAD PUSH1 0x1 PUSH1 0x1 PUSH1 0xA0 SHL SUB AND PUSH2 0xB15 JUMPI PUSH1 0x40 MLOAD PUSH3 0x461BCD PUSH1 0xE5 SHL DUP2 MSTORE PUSH1 0x20 PUSH1 0x4 DUP3 ADD MSTORE PUSH1 0x14 PUSH1 0x24 DUP3 ADD MSTORE PUSH32 0x546F6B656E20646F6573206E6F74206578697374000000000000000000000000 PUSH1 0x44 DUP3 ADD MSTORE PUSH1 0x64 ADD PUSH2 0x7ED JUMP JUMPDEST PUSH1 0x8 PUSH1 0x0 DUP4 DUP2 MSTORE PUSH1 0x20 ADD SWAP1 DUP2 MSTORE PUSH1 0x20 ADD PUSH1 0x0 KECCAK256 PUSH1 0x40 MLOAD DUP1 PUSH1 0xA0 ADD PUSH1 0x40 MSTORE SWAP1 DUP2 PUSH1 0x0 DUP3 ADD SLOAD DUP2 MSTORE PUSH1 0x20 ADD PUSH1 0x1 DUP3 ADD DUP1 SLOAD PUSH2 0xB4D SWAP1 PUSH2 0x1907 JUMP JUMPDEST DUP1 PUSH1 0x1F ADD PUSH1 0x20 DUP1 SWAP2 DIV MUL PUSH1 0x20 ADD PUSH1 0x40 MLOAD SWAP1 DUP2 ADD PUSH1 0x40 MSTORE DUP1 SWAP3 SWAP2 SWAP1 DUP2 DUP2 MSTORE PUSH1 0x20 ADD DUP3 DUP1 SLOAD PUSH2 0xB79 SWAP1 PUSH2 0x1907 JUMP JUMPDEST DUP1 ISZERO PUSH2 0xBC6 JUMPI DUP1 PUSH1 0x1F LT PUSH2 0xB9B JUMPI PUSH2 0x100 DUP1 DUP4 SLOAD DIV MUL DUP4 MSTORE SWAP2 PUSH1 0x20 ADD SWAP2 PUSH2 0xBC6 JUMP JUMPDEST DUP3 ADD SWAP2 SWAP1 PUSH1 0x0 MSTORE PUSH1 0x20 PUSH1 0x0 KECCAK256 SWAP1 JUMPDEST DUP2 SLOAD DUP2 MSTORE SWAP1 PUSH1 0x1 ADD SWAP1 PUSH1 0x20 ADD DUP1 DUP4 GT PUSH2 0xBA9 JUMPI DUP3 SWAP1 SUB PUSH1 0x1F AND DUP3 ADD SWAP2 JUMPDEST POP POP POP SWAP2 DUP4 MSTORE POP POP PUSH1 0x2 DUP3 ADD SLOAD PUSH1 0x20 DUP3 ADD MSTORE PUSH1 0x3 DUP3 ADD SLOAD PUSH1 0xFF AND ISZERO ISZERO PUSH1 0x40 DUP3 ADD MSTORE PUSH1 0x4 DUP3 ADD DUP1 SLOAD PUSH1 0x60 SWAP1 SWAP3 ADD SWAP2 PUSH2 0xBFC SWAP1 PUSH2 0x1907 JUMP JUMPDEST DUP1 PUSH1 0x1F ADD PUSH1 0x20 DUP1 SWAP2 DIV MUL PUSH1 0x20 ADD PUSH1 0x40 MLOAD SWAP1 DUP2 ADD PUSH1 0x40 MSTORE DUP1 SWAP3 SWAP2 SWAP1 DUP2 DUP2 MSTORE PUSH1 0x20 ADD DUP3 DUP1 SLOAD PUSH2 0xC28 SWAP1 PUSH2 0x1907 JUMP JUMPDEST DUP1 ISZERO PUSH2 0xC75 JUMPI DUP1 PUSH1 0x1F LT PUSH2 0xC4A JUMPI PUSH2 0x100 DUP1 DUP4 SLOAD DIV MUL DUP4 MSTORE SWAP2 PUSH1 0x20 ADD SWAP2 PUSH2 0xC75 JUMP JUMPDEST DUP3 ADD SWAP2 SWAP1 PUSH1 0x0 MSTORE PUSH1 0x20 PUSH1 0x0 KECCAK256 SWAP1 JUMPDEST DUP2 SLOAD DUP2 MSTORE SWAP1 PUSH1 0x1 ADD SWAP1 PUSH1 0x20 ADD DUP1 DUP4 GT PUSH2 0xC58 JUMPI DUP3 SWAP1 SUB PUSH1 0x1F AND DUP3 ADD SWAP2 JUMPDEST POP POP POP POP POP DUP2 MSTORE POP POP SWAP1 POP SWAP2 SWAP1 POP JUMP JUMPDEST PUSH1 0x0 DUP2 DUP2 MSTORE PUSH1 0x2 PUSH1 0x20 MSTORE PUSH1 0x40 DUP2 KECCAK256 SLOAD PUSH1 0x1 PUSH1 0x1 PUSH1 0xA0 SHL SUB AND DUP1 PUSH2 0x3F2 JUMPI PUSH1 0x40 MLOAD PUSH4 0x7E273289 PUSH1 0xE0 SHL DUP2 MSTORE PUSH1 0x4 DUP2 ADD DUP5 SWAP1 MSTORE PUSH1 0x24 ADD PUSH2 0x7ED JUMP JUMPDEST PUSH2 0x8FB DUP4 DUP4 DUP4 PUSH1 0x1 PUSH2 0x1111 JUMP JUMPDEST PUSH1 0x6 SLOAD PUSH1 0x1 PUSH1 0x1 PUSH1 0xA0 SHL SUB AND CALLER EQ PUSH2 0x97E JUMPI PUSH1 0x40 MLOAD PUSH32 0x118CDAA700000000000000000000000000000000000000000000000000000000 DUP2 MSTORE CALLER PUSH1 0x4 DUP3 ADD MSTORE PUSH1 0x24 ADD PUSH2 0x7ED JUMP JUMPDEST PUSH2 0x605 DUP3 DUP3 PUSH1 0x40 MLOAD DUP1 PUSH1 0x20 ADD PUSH1 0x40 MSTORE DUP1 PUSH1 0x0 DUP2 MSTORE POP PUSH2 0x125C JUMP JUMPDEST PUSH1 0x0 DUP3 DUP2 MSTORE PUSH1 0x2 PUSH1 0x20 MSTORE PUSH1 0x40 DUP2 KECCAK256 SLOAD PUSH1 0x1 PUSH1 0x1 PUSH1 0xA0 SHL SUB SWAP1 DUP2 AND SWAP1 DUP4 AND ISZERO PUSH2 0xD58 JUMPI PUSH2 0xD58 DUP2 DUP5 DUP7 PUSH2 0x1273 JUMP JUMPDEST PUSH1 0x1 PUSH1 0x1 PUSH1 0xA0 SHL SUB DUP2 AND ISZERO PUSH2 0xD96 JUMPI PUSH2 0xD75 PUSH1 0x0 DUP6 PUSH1 0x0 DUP1 PUSH2 0x1111 JUMP JUMPDEST PUSH1 0x1 PUSH1 0x1 PUSH1 0xA0 SHL SUB DUP2 AND PUSH1 0x0 SWAP1 DUP2 MSTORE PUSH1 0x3 PUSH1 0x20 MSTORE PUSH1 0x40 SWAP1 KECCAK256 DUP1 SLOAD PUSH1 0x0 NOT ADD SWAP1 SSTORE JUMPDEST PUSH1 0x1 PUSH1 0x1 PUSH1 0xA0 SHL SUB DUP6 AND ISZERO PUSH2 0xDC5 JUMPI PUSH1 0x1 PUSH1 0x1 PUSH1 0xA0 SHL SUB DUP6 AND PUSH1 0x0 SWAP1 DUP2 MSTORE PUSH1 0x3 PUSH1 0x20 MSTORE PUSH1 0x40 SWAP1 KECCAK256 DUP1 SLOAD PUSH1 0x1 ADD SWAP1 SSTORE JUMPDEST PUSH1 0x0 DUP5 DUP2 MSTORE PUSH1 0x2 PUSH1 0x20 MSTORE PUSH1 0x40 DUP1 DUP3 KECCAK256 DUP1 SLOAD PUSH20 0xFFFFFFFFFFFFFFFFFFFFFFFFFFFFFFFFFFFFFFFF NOT AND PUSH1 0x1 PUSH1 0x1 PUSH1 0xA0 SHL SUB DUP10 DUP2 AND SWAP2 DUP3 OR SWAP1 SWAP3 SSTORE SWAP2 MLOAD DUP8 SWAP4 SWAP2 DUP6 AND SWAP2 PUSH32 0xDDF252AD1BE2C89B69C2B068FC378DAA952BA7F163C4A11628F55A4DF523B3EF SWAP2 LOG4 SWAP5 SWAP4 POP POP POP POP JUMP JUMPDEST PUSH1 0x6 DUP1 SLOAD PUSH1 0x1 PUSH1 0x1 PUSH1 0xA0 SHL SUB DUP4 DUP2 AND PUSH20 0xFFFFFFFFFFFFFFFFFFFFFFFFFFFFFFFFFFFFFFFF NOT DUP4 AND DUP2 OR SWAP1 SWAP4 SSTORE PUSH1 0x40 MLOAD SWAP2 AND SWAP2 SWAP1 DUP3 SWAP1 PUSH32 0x8BE0079C531659141344CD1FD0A4F28419497F9722A3DAAFE3B4186F6B6457E0 SWAP1 PUSH1 0x0 SWAP1 LOG3 POP POP JUMP JUMPDEST PUSH1 0x1 PUSH1 0x1 PUSH1 0xA0 SHL SUB DUP3 AND PUSH2 0xEDB JUMPI PUSH1 0x40 MLOAD PUSH32 0x5B08BA1800000000000000000000000000000000000000000000000000000000 DUP2 MSTORE PUSH1 0x1 PUSH1 0x1 PUSH1 0xA0 SHL SUB DUP4 AND PUSH1 0x4 DUP3 ADD MSTORE PUSH1 0x24 ADD PUSH2 0x7ED JUMP JUMPDEST PUSH1 0x1 PUSH1 0x1 PUSH1 0xA0 SHL SUB DUP4 DUP2 AND PUSH1 0x0 DUP2 DUP2 MSTORE PUSH1 0x5 PUSH1 0x20 SWAP1 DUP2 MSTORE PUSH1 0x40 DUP1 DUP4 KECCAK256 SWAP5 DUP8 AND DUP1 DUP5 MSTORE SWAP5 DUP3 MSTORE SWAP2 DUP3 SWAP1 KECCAK256 DUP1 SLOAD PUSH1 0xFF NOT AND DUP7 ISZERO ISZERO SWAP1 DUP2 OR SWAP1 SWAP2 SSTORE SWAP2 MLOAD SWAP2 DUP3 MSTORE PUSH32 0x17307EAB39AB6107E8899845AD3D59BD9653F200F220920489CA2B5937696C31 SWAP2 ADD PUSH1 0x40 MLOAD DUP1 SWAP2 SUB SWAP1 LOG3 POP POP POP JUMP JUMPDEST PUSH1 0x1 PUSH1 0x1 PUSH1 0xA0 SHL SUB DUP4 AND EXTCODESIZE ISZERO PUSH2 0x8DA JUMPI PUSH1 0x40 MLOAD PUSH4 0xA85BD01 PUSH1 0xE1 SHL DUP2 MSTORE PUSH1 0x1 PUSH1 0x1 PUSH1 0xA0 SHL SUB DUP5 AND SWAP1 PUSH4 0x150B7A02 SWAP1 PUSH2 0xF8A SWAP1 CALLER SWAP1 DUP9 SWAP1 DUP8 SWAP1 DUP8 SWAP1 PUSH1 0x4 ADD PUSH2 0x1AC0 JUMP JUMPDEST PUSH1 0x20 PUSH1 0x40 MLOAD DUP1 DUP4 SUB DUP2 PUSH1 0x0 DUP8 GAS CALL SWAP3 POP POP POP DUP1 ISZERO PUSH2 0xFC5 JUMPI POP PUSH1 0x40 DUP1 MLOAD PUSH1 0x1F RETURNDATASIZE SWAP1 DUP2 ADD PUSH1 0x1F NOT AND DUP3 ADD SWAP1 SWAP3 MSTORE PUSH2 0xFC2 SWAP2 DUP2 ADD SWAP1 PUSH2 0x1AFC JUMP JUMPDEST PUSH1 0x1 JUMPDEST PUSH2 0x102E JUMPI RETURNDATASIZE DUP1 DUP1 ISZERO PUSH2 0xFF3 JUMPI PUSH1 0x40 MLOAD SWAP2 POP PUSH1 0x1F NOT PUSH1 0x3F RETURNDATASIZE ADD AND DUP3 ADD PUSH1 0x40 MSTORE RETURNDATASIZE DUP3 MSTORE RETURNDATASIZE PUSH1 0x0 PUSH1 0x20 DUP5 ADD RETURNDATACOPY PUSH2 0xFF8 JUMP JUMPDEST PUSH1 0x60 SWAP2 POP JUMPDEST POP DUP1 MLOAD PUSH1 0x0 SUB PUSH2 0x1026 JUMPI PUSH1 0x40 MLOAD PUSH4 0x32505749 PUSH1 0xE1 SHL DUP2 MSTORE PUSH1 0x1 PUSH1 0x1 PUSH1 0xA0 SHL SUB DUP6 AND PUSH1 0x4 DUP3 ADD MSTORE PUSH1 0x24 ADD PUSH2 0x7ED JUMP JUMPDEST DUP1 MLOAD DUP2 PUSH1 0x20 ADD REVERT JUMPDEST PUSH1 0x1 PUSH1 0x1 PUSH1 0xE0 SHL SUB NOT DUP2 AND PUSH4 0xA85BD01 PUSH1 0xE1 SHL EQ PUSH2 0x106A JUMPI PUSH1 0x40 MLOAD PUSH4 0x32505749 PUSH1 0xE1 SHL DUP2 MSTORE PUSH1 0x1 PUSH1 0x1 PUSH1 0xA0 SHL SUB DUP6 AND PUSH1 0x4 DUP3 ADD MSTORE PUSH1 0x24 ADD PUSH2 0x7ED JUMP JUMPDEST POP POP POP POP POP JUMP JUMPDEST PUSH1 0x60 PUSH1 0x0 PUSH2 0x107E DUP4 PUSH2 0x12F0 JUMP JUMPDEST PUSH1 0x1 ADD SWAP1 POP PUSH1 0x0 DUP2 PUSH8 0xFFFFFFFFFFFFFFFF DUP2 GT ISZERO PUSH2 0x109E JUMPI PUSH2 0x109E PUSH2 0x1780 JUMP JUMPDEST PUSH1 0x40 MLOAD SWAP1 DUP1 DUP3 MSTORE DUP1 PUSH1 0x1F ADD PUSH1 0x1F NOT AND PUSH1 0x20 ADD DUP3 ADD PUSH1 0x40 MSTORE DUP1 ISZERO PUSH2 0x10C8 JUMPI PUSH1 0x20 DUP3 ADD DUP2 DUP1 CALLDATASIZE DUP4 CALLDATACOPY ADD SWAP1 POP JUMPDEST POP SWAP1 POP DUP2 DUP2 ADD PUSH1 0x20 ADD JUMPDEST PUSH1 0x0 NOT ADD PUSH32 0x3031323334353637383961626364656600000000000000000000000000000000 PUSH1 0xA DUP7 MOD BYTE DUP2 MSTORE8 PUSH1 0xA DUP6 DIV SWAP5 POP DUP5 PUSH2 0x10D2 JUMPI POP SWAP4 SWAP3 POP POP POP JUMP JUMPDEST DUP1 DUP1 PUSH2 0x1125 JUMPI POP PUSH1 0x1 PUSH1 0x1 PUSH1 0xA0 SHL SUB DUP3 AND ISZERO ISZERO JUMPDEST ISZERO PUSH2 0x121F JUMPI PUSH1 0x0 PUSH2 0x1135 DUP5 PUSH2 0xC85 JUMP JUMPDEST SWAP1 POP PUSH1 0x1 PUSH1 0x1 PUSH1 0xA0 SHL SUB DUP4 AND ISZERO DUP1 ISZERO SWAP1 PUSH2 0x1161 JUMPI POP DUP3 PUSH1 0x1 PUSH1 0x1 PUSH1 0xA0 SHL SUB AND DUP2 PUSH1 0x1 PUSH1 0x1 PUSH1 0xA0 SHL SUB AND EQ ISZERO JUMPDEST DUP1 ISZERO PUSH2 0x1193 JUMPI POP PUSH1 0x1 PUSH1 0x1 PUSH1 0xA0 SHL SUB DUP1 DUP3 AND PUSH1 0x0 SWAP1 DUP2 MSTORE PUSH1 0x5 PUSH1 0x20 SWAP1 DUP2 MSTORE PUSH1 0x40 DUP1 DUP4 KECCAK256 SWAP4 DUP8 AND DUP4 MSTORE SWAP3 SWAP1 MSTORE KECCAK256 SLOAD PUSH1 0xFF AND ISZERO JUMPDEST ISZERO PUSH2 0x11D5 JUMPI PUSH1 0x40 MLOAD PUSH32 0xA9FBF51F00000000000000000000000000000000000000000000000000000000 DUP2 MSTORE PUSH1 0x1 PUSH1 0x1 PUSH1 0xA0 SHL SUB DUP5 AND PUSH1 0x4 DUP3 ADD MSTORE PUSH1 0x24 ADD PUSH2 0x7ED JUMP JUMPDEST DUP2 ISZERO PUSH2 0x121D JUMPI DUP4 DUP6 PUSH1 0x1 PUSH1 0x1 PUSH1 0xA0 SHL SUB AND DUP3 PUSH1 0x1 PUSH1 0x1 PUSH1 0xA0 SHL SUB AND PUSH32 0x8C5BE1E5EBEC7D5BD14F71427D1E84F3DD0314C0F7B2291E5B200AC8C7C3B925 PUSH1 0x40 MLOAD PUSH1 0x40 MLOAD DUP1 SWAP2 SUB SWAP1 LOG4 JUMPDEST POP JUMPDEST POP POP PUSH1 0x0 SWAP1 DUP2 MSTORE PUSH1 0x4 PUSH1 0x20 MSTORE PUSH1 0x40 SWAP1 KECCAK256 DUP1 SLOAD PUSH20 0xFFFFFFFFFFFFFFFFFFFFFFFFFFFFFFFFFFFFFFFF NOT AND PUSH1 0x1 PUSH1 0x1 PUSH1 0xA0 SHL SUB SWAP3 SWAP1 SWAP3 AND SWAP2 SWAP1 SWAP2 OR SWAP1 SSTORE JUMP JUMPDEST PUSH2 0x1266 DUP4 DUP4 PUSH2 0x13D2 JUMP JUMPDEST PUSH2 0x8FB PUSH1 0x0 DUP5 DUP5 DUP5 PUSH2 0xF48 JUMP JUMPDEST PUSH2 0x127E DUP4 DUP4 DUP4 PUSH2 0x1450 JUMP JUMPDEST PUSH2 0x8FB JUMPI PUSH1 0x1 PUSH1 0x1 PUSH1 0xA0 SHL SUB DUP4 AND PUSH2 0x12AC JUMPI PUSH1 0x40 MLOAD PUSH4 0x7E273289 PUSH1 0xE0 SHL DUP2 MSTORE PUSH1 0x4 DUP2 ADD DUP3 SWAP1 MSTORE PUSH1 0x24 ADD PUSH2 0x7ED JUMP JUMPDEST PUSH1 0x40 MLOAD PUSH32 0x177E802F00000000000000000000000000000000000000000000000000000000 DUP2 MSTORE PUSH1 0x1 PUSH1 0x1 PUSH1 0xA0 SHL SUB DUP4 AND PUSH1 0x4 DUP3 ADD MSTORE PUSH1 0x24 DUP2 ADD DUP3 SWAP1 MSTORE PUSH1 0x44 ADD PUSH2 0x7ED JUMP JUMPDEST PUSH1 0x0 DUP1 PUSH27 0x184F03E93FF9F4DAA797ED6E38ED64BF6A1F010000000000000000 DUP4 LT PUSH2 0x1339 JUMPI PUSH27 0x184F03E93FF9F4DAA797ED6E38ED64BF6A1F010000000000000000 DUP4 DIV SWAP3 POP PUSH1 0x40 ADD JUMPDEST PUSH14 0x4EE2D6D415B85ACEF8100000000 DUP4 LT PUSH2 0x1365 JUMPI PUSH14 0x4EE2D6D415B85ACEF8100000000 DUP4 DIV SWAP3 POP PUSH1 0x20 ADD JUMPDEST PUSH7 0x2386F26FC10000 DUP4 LT PUSH2 0x1383 JUMPI PUSH7 0x2386F26FC10000 DUP4 DIV SWAP3 POP PUSH1 0x10 ADD JUMPDEST PUSH4 0x5F5E100 DUP4 LT PUSH2 0x139B JUMPI PUSH4 0x5F5E100 DUP4 DIV SWAP3 POP PUSH1 0x8 ADD JUMPDEST PUSH2 0x2710 DUP4 LT PUSH2 0x13AF JUMPI PUSH2 0x2710 DUP4 DIV SWAP3 POP PUSH1 0x4 ADD JUMPDEST PUSH1 0x64 DUP4 LT PUSH2 0x13C1 JUMPI PUSH1 0x64 DUP4 DIV SWAP3 POP PUSH1 0x2 ADD JUMPDEST PUSH1 0xA DUP4 LT PUSH2 0x3F2 JUMPI PUSH1 0x1 ADD SWAP3 SWAP2 POP POP JUMP JUMPDEST PUSH1 0x1 PUSH1 0x1 PUSH1 0xA0 SHL SUB DUP3 AND PUSH2 0x13FC JUMPI PUSH1 0x40 MLOAD PUSH4 0x32505749 PUSH1 0xE1 SHL DUP2 MSTORE PUSH1 0x0 PUSH1 0x4 DUP3 ADD MSTORE PUSH1 0x24 ADD PUSH2 0x7ED JUMP JUMPDEST PUSH1 0x0 PUSH2 0x140A DUP4 DUP4 PUSH1 0x0 PUSH2 0xD2B JUMP JUMPDEST SWAP1 POP PUSH1 0x1 PUSH1 0x1 PUSH1 0xA0 SHL SUB DUP2 AND ISZERO PUSH2 0x8FB JUMPI PUSH1 0x40 MLOAD PUSH32 0x73C6AC6E00000000000000000000000000000000000000000000000000000000 DUP2 MSTORE PUSH1 0x0 PUSH1 0x4 DUP3 ADD MSTORE PUSH1 0x24 ADD PUSH2 0x7ED JUMP JUMPDEST PUSH1 0x0 PUSH1 0x1 PUSH1 0x1 PUSH1 0xA0 SHL SUB DUP4 AND ISZERO DUP1 ISZERO SWAP1 PUSH2 0x14CE JUMPI POP DUP3 PUSH1 0x1 PUSH1 0x1 PUSH1 0xA0 SHL SUB AND DUP5 PUSH1 0x1 PUSH1 0x1 PUSH1 0xA0 SHL SUB AND EQ DUP1 PUSH2 0x14AA JUMPI POP PUSH1 0x1 PUSH1 0x1 PUSH1 0xA0 SHL SUB DUP1 DUP6 AND PUSH1 0x0 SWAP1 DUP2 MSTORE PUSH1 0x5 PUSH1 0x20 SWAP1 DUP2 MSTORE PUSH1 0x40 DUP1 DUP4 KECCAK256 SWAP4 DUP8 AND DUP4 MSTORE SWAP3 SWAP1 MSTORE KECCAK256 SLOAD PUSH1 0xFF AND JUMPDEST DUP1 PUSH2 0x14CE JUMPI POP PUSH1 0x0 DUP3 DUP2 MSTORE PUSH1 0x4 PUSH1 0x20 MSTORE PUSH1 0x40 SWAP1 KECCAK256 SLOAD PUSH1 0x1 PUSH1 0x1 PUSH1 0xA0 SHL SUB DUP5 DUP2 AND SWAP2 AND EQ JUMPDEST SWAP5 SWAP4 POP POP POP POP JUMP JUMPDEST PUSH1 0x1 PUSH1 0x1 PUSH1 0xE0 SHL SUB NOT DUP2 AND DUP2 EQ PUSH2 0xA7A JUMPI PUSH1 0x0 DUP1 REVERT JUMPDEST PUSH1 0x0 PUSH1 0x20 DUP3 DUP5 SUB SLT ISZERO PUSH2 0x14FE JUMPI PUSH1 0x0 DUP1 REVERT JUMPDEST DUP2 CALLDATALOAD PUSH2 0xA1F DUP2 PUSH2 0x14D6 JUMP JUMPDEST PUSH1 0x0 PUSH1 0x20 DUP3 DUP5 SUB SLT ISZERO PUSH2 0x151B JUMPI PUSH1 0x0 DUP1 REVERT JUMPDEST POP CALLDATALOAD SWAP2 SWAP1 POP JUMP JUMPDEST PUSH1 0x0 JUMPDEST DUP4 DUP2 LT ISZERO PUSH2 0x153D JUMPI DUP2 DUP2 ADD MLOAD DUP4 DUP3 ADD MSTORE PUSH1 0x20 ADD PUSH2 0x1525 JUMP JUMPDEST POP POP PUSH1 0x0 SWAP2 ADD MSTORE JUMP JUMPDEST PUSH1 0x0 DUP2 MLOAD DUP1 DUP5 MSTORE PUSH2 0x155E DUP2 PUSH1 0x20 DUP7 ADD PUSH1 0x20 DUP7 ADD PUSH2 0x1522 JUMP JUMPDEST PUSH1 0x1F ADD PUSH1 0x1F NOT AND SWAP3 SWAP1 SWAP3 ADD PUSH1 0x20 ADD SWAP3 SWAP2 POP POP JUMP JUMPDEST DUP6 DUP2 MSTORE PUSH1 0xA0 PUSH1 0x20 DUP3 ADD MSTORE PUSH1 0x0 PUSH2 0x158B PUSH1 0xA0 DUP4 ADD DUP8 PUSH2 0x1546 JUMP JUMPDEST DUP6 PUSH1 0x40 DUP5 ADD MSTORE DUP5 ISZERO ISZERO PUSH1 0x60 DUP5 ADD MSTORE DUP3 DUP2 SUB PUSH1 0x80 DUP5 ADD MSTORE PUSH2 0x15AB DUP2 DUP6 PUSH2 0x1546 JUMP JUMPDEST SWAP9 SWAP8 POP POP POP POP POP POP POP POP JUMP JUMPDEST PUSH1 0x20 DUP2 MSTORE PUSH1 0x0 PUSH2 0xA1F PUSH1 0x20 DUP4 ADD DUP5 PUSH2 0x1546 JUMP JUMPDEST DUP1 CALLDATALOAD PUSH1 0x1 PUSH1 0x1 PUSH1 0xA0 SHL SUB DUP2 AND DUP2 EQ PUSH2 0x15E1 JUMPI PUSH1 0x0 DUP1 REVERT JUMPDEST SWAP2 SWAP1 POP JUMP JUMPDEST PUSH1 0x0 DUP1 PUSH1 0x40 DUP4 DUP6 SUB SLT ISZERO PUSH2 0x15F9 JUMPI PUSH1 0x0 DUP1 REVERT JUMPDEST PUSH2 0x1602 DUP4 PUSH2 0x15CA JUMP JUMPDEST SWAP5 PUSH1 0x20 SWAP4 SWAP1 SWAP4 ADD CALLDATALOAD SWAP4 POP POP POP JUMP JUMPDEST PUSH1 0x0 DUP1 DUP4 PUSH1 0x1F DUP5 ADD SLT PUSH2 0x1622 JUMPI PUSH1 0x0 DUP1 REVERT JUMPDEST POP DUP2 CALLDATALOAD PUSH8 0xFFFFFFFFFFFFFFFF DUP2 GT ISZERO PUSH2 0x163A JUMPI PUSH1 0x0 DUP1 REVERT JUMPDEST PUSH1 0x20 DUP4 ADD SWAP2 POP DUP4 PUSH1 0x20 DUP3 DUP6 ADD ADD GT ISZERO PUSH2 0x1652 JUMPI PUSH1 0x0 DUP1 REVERT JUMPDEST SWAP3 POP SWAP3 SWAP1 POP JUMP JUMPDEST PUSH1 0x0 DUP1 PUSH1 0x0 DUP1 PUSH1 0x0 DUP1 PUSH1 0x0 PUSH1 0xA0 DUP9 DUP11 SUB SLT ISZERO PUSH2 0x1674 JUMPI PUSH1 0x0 DUP1 REVERT JUMPDEST PUSH2 0x167D DUP9 PUSH2 0x15CA JUMP JUMPDEST SWAP7 POP PUSH1 0x20 DUP9 ADD CALLDATALOAD SWAP6 POP PUSH1 0x40 DUP9 ADD CALLDATALOAD PUSH8 0xFFFFFFFFFFFFFFFF DUP1 DUP3 GT ISZERO PUSH2 0x16A1 JUMPI PUSH1 0x0 DUP1 REVERT JUMPDEST PUSH2 0x16AD DUP12 DUP4 DUP13 ADD PUSH2 0x1610 JUMP JUMPDEST SWAP1 SWAP8 POP SWAP6 POP PUSH1 0x60 DUP11 ADD CALLDATALOAD SWAP5 POP PUSH1 0x80 DUP11 ADD CALLDATALOAD SWAP2 POP DUP1 DUP3 GT ISZERO PUSH2 0x16CD JUMPI PUSH1 0x0 DUP1 REVERT JUMPDEST POP PUSH2 0x16DA DUP11 DUP3 DUP12 ADD PUSH2 0x1610 JUMP JUMPDEST SWAP9 SWAP12 SWAP8 SWAP11 POP SWAP6 SWAP9 POP SWAP4 SWAP7 SWAP3 SWAP6 SWAP3 SWAP4 POP POP POP JUMP JUMPDEST PUSH1 0x0 DUP1 PUSH1 0x0 PUSH1 0x60 DUP5 DUP7 SUB SLT ISZERO PUSH2 0x1702 JUMPI PUSH1 0x0 DUP1 REVERT JUMPDEST PUSH2 0x170B DUP5 PUSH2 0x15CA JUMP JUMPDEST SWAP3 POP PUSH2 0x1719 PUSH1 0x20 DUP6 ADD PUSH2 0x15CA JUMP JUMPDEST SWAP2 POP PUSH1 0x40 DUP5 ADD CALLDATALOAD SWAP1 POP SWAP3 POP SWAP3 POP SWAP3 JUMP JUMPDEST PUSH1 0x0 PUSH1 0x20 DUP3 DUP5 SUB SLT ISZERO PUSH2 0x173B JUMPI PUSH1 0x0 DUP1 REVERT JUMPDEST PUSH2 0xA1F DUP3 PUSH2 0x15CA JUMP JUMPDEST PUSH1 0x0 DUP1 PUSH1 0x40 DUP4 DUP6 SUB SLT ISZERO PUSH2 0x1757 JUMPI PUSH1 0x0 DUP1 REVERT JUMPDEST PUSH2 0x1760 DUP4 PUSH2 0x15CA JUMP JUMPDEST SWAP2 POP PUSH1 0x20 DUP4 ADD CALLDATALOAD DUP1 ISZERO ISZERO DUP2 EQ PUSH2 0x1775 JUMPI PUSH1 0x0 DUP1 REVERT JUMPDEST DUP1 SWAP2 POP POP SWAP3 POP SWAP3 SWAP1 POP JUMP JUMPDEST PUSH4 0x4E487B71 PUSH1 0xE0 SHL PUSH1 0x0 MSTORE PUSH1 0x41 PUSH1 0x4 MSTORE PUSH1 0x24 PUSH1 0x0 REVERT JUMPDEST PUSH1 0x0 DUP1 PUSH1 0x0 DUP1 PUSH1 0x80 DUP6 DUP8 SUB SLT ISZERO PUSH2 0x17AC JUMPI PUSH1 0x0 DUP1 REVERT JUMPDEST PUSH2 0x17B5 DUP6 PUSH2 0x15CA JUMP JUMPDEST SWAP4 POP PUSH2 0x17C3 PUSH1 0x20 DUP7 ADD PUSH2 0x15CA JUMP JUMPDEST SWAP3 POP PUSH1 0x40 DUP6 ADD CALLDATALOAD SWAP2 POP PUSH1 0x60 DUP6 ADD CALLDATALOAD PUSH8 0xFFFFFFFFFFFFFFFF DUP1 DUP3 GT ISZERO PUSH2 0x17E7 JUMPI PUSH1 0x0 DUP1 REVERT JUMPDEST DUP2 DUP8 ADD SWAP2 POP DUP8 PUSH1 0x1F DUP4 ADD SLT PUSH2 0x17FB JUMPI PUSH1 0x0 DUP1 REVERT JUMPDEST DUP2 CALLDATALOAD DUP2 DUP2 GT ISZERO PUSH2 0x180D JUMPI PUSH2 0x180D PUSH2 0x1780 JUMP JUMPDEST PUSH1 0x40 MLOAD PUSH1 0x1F DUP3 ADD PUSH1 0x1F NOT SWAP1 DUP2 AND PUSH1 0x3F ADD AND DUP2 ADD SWAP1 DUP4 DUP3 GT DUP2 DUP4 LT OR ISZERO PUSH2 0x1835 JUMPI PUSH2 0x1835 PUSH2 0x1780 JUMP JUMPDEST DUP2 PUSH1 0x40 MSTORE DUP3 DUP2 MSTORE DUP11 PUSH1 0x20 DUP5 DUP8 ADD ADD GT ISZERO PUSH2 0x184E JUMPI PUSH1 0x0 DUP1 REVERT JUMPDEST DUP3 PUSH1 0x20 DUP7 ADD PUSH1 0x20 DUP4 ADD CALLDATACOPY PUSH1 0x0 PUSH1 0x20 DUP5 DUP4 ADD ADD MSTORE DUP1 SWAP6 POP POP POP POP POP POP SWAP3 SWAP6 SWAP2 SWAP5 POP SWAP3 POP JUMP JUMPDEST PUSH1 0x0 DUP1 PUSH1 0x40 DUP4 DUP6 SUB SLT ISZERO PUSH2 0x1885 JUMPI PUSH1 0x0 DUP1 REVERT JUMPDEST PUSH2 0x188E DUP4 PUSH2 0x15CA JUMP JUMPDEST SWAP2 POP PUSH2 0x189C PUSH1 0x20 DUP5 ADD PUSH2 0x15CA JUMP JUMPDEST SWAP1 POP SWAP3 POP SWAP3 SWAP1 POP JUMP JUMPDEST PUSH1 0x20 DUP2 MSTORE DUP2 MLOAD PUSH1 0x20 DUP3 ADD MSTORE PUSH1 0x0 PUSH1 0x20 DUP4 ADD MLOAD PUSH1 0xA0 PUSH1 0x40 DUP5 ADD MSTORE PUSH2 0x18CB PUSH1 0xC0 DUP5 ADD DUP3 PUSH2 0x1546 JUMP JUMPDEST SWAP1 POP PUSH1 0x40 DUP5 ADD MLOAD PUSH1 0x60 DUP5 ADD MSTORE PUSH1 0x60 DUP5 ADD MLOAD ISZERO ISZERO PUSH1 0x80 DUP5 ADD MSTORE PUSH1 0x80 DUP5 ADD MLOAD PUSH1 0x1F NOT DUP5 DUP4 SUB ADD PUSH1 0xA0 DUP6 ADD MSTORE PUSH2 0x18FE DUP3 DUP3 PUSH2 0x1546 JUMP JUMPDEST SWAP6 SWAP5 POP POP POP POP POP JUMP JUMPDEST PUSH1 0x1 DUP2 DUP2 SHR SWAP1 DUP3 AND DUP1 PUSH2 0x191B JUMPI PUSH1 0x7F DUP3 AND SWAP2 POP JUMPDEST PUSH1 0x20 DUP3 LT DUP2 SUB PUSH2 0x193B JUMPI PUSH4 0x4E487B71 PUSH1 0xE0 SHL PUSH1 0x0 MSTORE PUSH1 0x22 PUSH1 0x4 MSTORE PUSH1 0x24 PUSH1 0x0 REVERT JUMPDEST POP SWAP2 SWAP1 POP JUMP JUMPDEST PUSH4 0x4E487B71 PUSH1 0xE0 SHL PUSH1 0x0 MSTORE PUSH1 0x11 PUSH1 0x4 MSTORE PUSH1 0x24 PUSH1 0x0 REVERT JUMPDEST PUSH1 0x0 PUSH1 0x1 DUP3 ADD PUSH2 0x1969 JUMPI PUSH2 0x1969 PUSH2 0x1941 JUMP JUMPDEST POP PUSH1 0x1 ADD SWAP1 JUMP JUMPDEST DUP1 DUP3 ADD DUP1 DUP3 GT ISZERO PUSH2 0x3F2 JUMPI PUSH2 0x3F2 PUSH2 0x1941 JUMP JUMPDEST PUSH1 0x1F DUP3 GT ISZERO PUSH2 0x8FB JUMPI PUSH1 0x0 DUP2 DUP2 MSTORE PUSH1 0x20 DUP2 KECCAK256 PUSH1 0x1F DUP6 ADD PUSH1 0x5 SHR DUP2 ADD PUSH1 0x20 DUP7 LT ISZERO PUSH2 0x19AA JUMPI POP DUP1 JUMPDEST PUSH1 0x1F DUP6 ADD PUSH1 0x5 SHR DUP3 ADD SWAP2 POP JUMPDEST DUP2 DUP2 LT ISZERO PUSH2 0x19C9 JUMPI DUP3 DUP2 SSTORE PUSH1 0x1 ADD PUSH2 0x19B6 JUMP JUMPDEST POP POP POP POP POP POP JUMP JUMPDEST DUP2 MLOAD PUSH8 0xFFFFFFFFFFFFFFFF DUP2 GT ISZERO PUSH2 0x19EB JUMPI PUSH2 0x19EB PUSH2 0x1780 JUMP JUMPDEST PUSH2 0x19FF DUP2 PUSH2 0x19F9 DUP5 SLOAD PUSH2 0x1907 JUMP JUMPDEST DUP5 PUSH2 0x1983 JUMP JUMPDEST PUSH1 0x20 DUP1 PUSH1 0x1F DUP4 GT PUSH1 0x1 DUP2 EQ PUSH2 0x1A34 JUMPI PUSH1 0x0 DUP5 ISZERO PUSH2 0x1A1C JUMPI POP DUP6 DUP4 ADD MLOAD JUMPDEST PUSH1 0x0 NOT PUSH1 0x3 DUP7 SWAP1 SHL SHR NOT AND PUSH1 0x1 DUP6 SWAP1 SHL OR DUP6 SSTORE PUSH2 0x19C9 JUMP JUMPDEST PUSH1 0x0 DUP6 DUP2 MSTORE PUSH1 0x20 DUP2 KECCAK256 PUSH1 0x1F NOT DUP7 AND SWAP2 JUMPDEST DUP3 DUP2 LT ISZERO PUSH2 0x1A63 JUMPI DUP9 DUP7 ADD MLOAD DUP3 SSTORE SWAP5 DUP5 ADD SWAP5 PUSH1 0x1 SWAP1 SWAP2 ADD SWAP1 DUP5 ADD PUSH2 0x1A44 JUMP JUMPDEST POP DUP6 DUP3 LT ISZERO PUSH2 0x1A81 JUMPI DUP8 DUP6 ADD MLOAD PUSH1 0x0 NOT PUSH1 0x3 DUP9 SWAP1 SHL PUSH1 0xF8 AND SHR NOT AND DUP2 SSTORE JUMPDEST POP POP POP POP POP PUSH1 0x1 SWAP1 DUP2 SHL ADD SWAP1 SSTORE POP JUMP JUMPDEST PUSH1 0x0 DUP4 MLOAD PUSH2 0x1AA3 DUP2 DUP5 PUSH1 0x20 DUP9 ADD PUSH2 0x1522 JUMP JUMPDEST DUP4 MLOAD SWAP1 DUP4 ADD SWAP1 PUSH2 0x1AB7 DUP2 DUP4 PUSH1 0x20 DUP9 ADD PUSH2 0x1522 JUMP JUMPDEST ADD SWAP5 SWAP4 POP POP POP POP JUMP JUMPDEST PUSH1 0x0 PUSH1 0x1 PUSH1 0x1 PUSH1 0xA0 SHL SUB DUP1 DUP8 AND DUP4 MSTORE DUP1 DUP7 AND PUSH1 0x20 DUP5 ADD MSTORE POP DUP4 PUSH1 0x40 DUP4 ADD MSTORE PUSH1 0x80 PUSH1 0x60 DUP4 ADD MSTORE PUSH2 0x1AF2 PUSH1 0x80 DUP4 ADD DUP5 PUSH2 0x1546 JUMP JUMPDEST SWAP7 SWAP6 POP POP POP POP POP POP JUMP JUMPDEST PUSH1 0x0 PUSH1 0x20 DUP3 DUP5 SUB SLT ISZERO PUSH2 0x1B0E JUMPI PUSH1 0x0 DUP1 REVERT JUMPDEST DUP2 MLOAD PUSH2 0xA1F DUP2 PUSH2 0x14D6 JUMP INVALID LOG2 PUSH5 0x6970667358 0x22 SLT KECCAK256 SIGNEXTEND DUP1 0xA9 PUSH7 0xDB19E4F6FDDA48 0xEE KECCAK256 PUSH14 0x707463D17AC5485DEFD55E891942 MSIZE 0xDB BLOCKHASH PUSH9 0x64736F6C6343000814 STOP CALLER "},"methodIdentifiers":{"approve(address,uint256)":"095ea7b3","balanceOf(address)":"70a08231","credits(uint256)":"036a1c22","getApproved(uint256)":"081812fc","getCreditDetails(uint256)":"f85aafbd","isApprovedForAll(address,address)":"e985e9c5","mintCredit(address,uint256,string,uint256,string)":"099c8463","name()":"06fdde03","owner()":"8da5cb5b","ownerOf(uint256)":"6352211e","renounceOwnership()":"715018a6","safeTransferFrom(address,address,uint256)":"42842e0e","safeTransferFrom(address,address,uint256,bytes)":"b88d4fde","setApprovalForAll(address,bool)":"a22cb465","supportsInterface(bytes4)":"01ffc9a7","symbol()":"95d89b41","tokenURI(uint256)":"c87b56dd","transferFrom(address,address,uint256)":"23b872dd","transferOwnership(address)":"f2fde38b","verifyCredit(uint256)":"14fe83f8"}}}}}