{
  "_format": "hh-sol-artifact-1",
  "contractName": "Verification",
  "sourceName": "contracts/Verification.sol",
  "abi": [
    {
      "inputs": [
        {
          "internalType": "address",
          "name": "_carbonCredit",
          "type": "address"
        }
      ],
      "stateMutability": "nonpayable",
      "type": "constructor"
    },
    {
      "inputs": [
        {
          "internalType": "address",
          "name": "owner",
          "type": "address"
        }
      ],
      "name": "OwnableInvalidOwner",
      "type": "error"
    },
    {
      "inputs": [
        {
          "internalType": "address",
          "name": "account",
          "type": "address"
        }
      ],
      "name": "OwnableUnauthorizedAccount",
      "type": "error"
    },
    {
      "anonymous": false,
      "inputs": [
        {
          "indexed": true,
          "internalType": "uint256",
          "name": "tokenId",
          "type": "uint256"
        },
        {
          "indexed": true,
          "internalType": "address",
          "name": "verifier",
          "type": "address"
        },
        {
          "indexed": false,
          "internalType": "string",
          "name": "metadataURI",
          "type": "string"
        }
      ],
      "name": "CreditVerified",
      "type": "event"
    },
    {
      "anonymous": false,
      "inputs": [
        {
          "indexed": true,
          "internalType": "address",
          "name": "previousOwner",
          "type": "address"
        },
        {
          "indexed": true,
          "internalType": "address",
          "name": "newOwner",
          "type": "address"
        }
      ],
      "name": "OwnershipTransferred",
      "type": "event"
    },
    {
      "anonymous": false,
      "inputs": [
        {
          "indexed": true,
          "internalType": "address",
          "name": "account",
          "type": "address"
        }
      ],
      "name": "VerifierAdded",
      "type": "event"
    },
    {
      "anonymous": false,
      "inputs": [
        {
          "indexed": true,
          "internalType": "address",
          "name": "account",
          "type": "address"
        }
      ],
      "name": "VerifierRemoved",
      "type": "event"
    },
    {
      "inputs": [
        {
          "internalType": "address",
          "name": "account",
          "type": "address"
        }
      ],
      "name": "addVerifier",
      "outputs": [],
      "stateMutability": "nonpayable",
      "type": "function"
    },
    {
      "inputs": [],
      "name": "carbonCredit",
      "outputs": [
        {
          "internalType": "contract CarbonCredit",
          "name": "",
          "type": "address"
        }
      ],
      "stateMutability": "view",
      "type": "function"
    },
    {
      "inputs": [
        {
          "internalType": "uint256",
          "name": "tokenId",
          "type": "uint256"
        }
      ],
      "name": "getVerificationData",
      "outputs": [
        {
          "components": [
            {
              "internalType": "address",
              "name": "verifier",
              "type": "address"
            },
            {
              "internalType": "uint256",
              "name": "timestamp",
              "type": "uint256"
            },
            {
              "internalType": "string",
              "name": "metadataURI",
              "type": "string"
            }
          ],
          "internalType": "struct Verification.VerificationData",
          "name": "",
          "type": "tuple"
        }
      ],
      "stateMutability": "view",
      "type": "function"
    },
    {
      "inputs": [
        {
          "internalType": "address",
          "name": "account",
          "type": "address"
        }
      ],
      "name": "isVerifier",
      "outputs": [
        {
          "internalType": "bool",
          "name": "",
          "type": "bool"
        }
      ],
      "stateMutability": "view",
      "type": "function"
    },
    {
      "inputs": [],
      "name": "owner",
      "outputs": [
        {
          "internalType": "address",
          "name": "",
          "type": "address"
        }
      ],
      "stateMutability": "view",
      "type": "function"
    },
    {
      "inputs": [
        {
          "internalType": "address",
          "name": "account",
          "type": "address"
        }
      ],
      "name": "removeVerifier",
      "outputs": [],
      "stateMutability": "nonpayable",
      "type": "function"
    },
    {
      "inputs": [],
      "name": "renounceOwnership",
      "outputs": [],
      "stateMutability": "nonpayable",
      "type": "function"
    },
    {
      "inputs": [
        {
          "internalType": "address",
          "name": "newOwner",
          "type": "address"
        }
      ],
      "name": "transferOwnership",
      "outputs": [],
      "stateMutability": "nonpayable",
      "type": "function"
    },
    {
      "inputs": [
        {
          "internalType": "uint256",
          "name": "",
          "type": "uint256"
        }
      ],
      "name": "verificationRecords",
      "outputs": [
        {
          "internalType": "address",
          "name": "verifier",
          "type": "address"
        },
        {
          "internalType": "uint256",
          "name": "timestamp",
          "type": "uint256"
        },
        {
          "internalType": "string",
          "name": "metadataURI",
          "type": "string"
        }
      ],
      "stateMutability": "view",
      "type": "function"
    },
    {
      "inputs": [
        {
          "internalType": "address",
          "name": "",
          "type": "address"
        }
      ],
      "name": "verifiers",
      "outputs": [
        {
          "internalType": "bool",
          "name": "",
          "type": "bool"
        }
      ],
      "stateMutability": "view",
      "type": "function"
    },
    {
      "inputs": [
        {
          "internalType": "uint256",
          "name": "tokenId",
          "type": "uint256"
        },
        {
          "internalType": "string",
          "name": "verificationMetadataURI",
          "type": "string"
        }
      ],
      "name": "verifyCredit",
      "outputs": [],
      "stateMutability": "nonpayable",
      "type": "function"
    }
  ],
  "bytecode": "0x608060405234801561001057600080fd5b50604051610b9c380380610b9c83398101604081905261002f916100ee565b338061005557604051631e4fbdf760e01b81526000600482015260240160405180910390fd5b61005e8161009e565b50600180546001600160a01b0319166001600160a01b0392909216919091178155336000908152600360205260409020805460ff1916909117905561011e565b600080546001600160a01b038381166001600160a01b0319831681178455604051919092169283917f8be0079c531659141344cd1fd0a4f28419497f9722a3daafe3b4186f6b6457e09190a35050565b60006020828403121561010057600080fd5b81516001600160a01b038116811461011757600080fd5b9392505050565b610a6f8061012d6000396000f3fe608060405234801561001057600080fd5b50600436106100c95760003560e01c8063715018a611610081578063bfc87a841161005b578063bfc87a84146101c2578063ca2dfd0a146101e4578063f2fde38b146101f757600080fd5b8063715018a6146101965780638da5cb5b1461019e5780639000b3d6146101af57600080fd5b80634f775b93116100b25780634f775b9314610133578063637bf795146101485780636c8244871461017357600080fd5b80630343b1e7146100ce57806333105218146100f7575b600080fd5b6100e16100dc36600461070c565b61020a565b6040516100ee919061076b565b60405180910390f35b6101236101053660046107ab565b6001600160a01b031660009081526003602052604090205460ff1690565b60405190151581526020016100ee565b6101466101413660046107f1565b6102f5565b005b60015461015b906001600160a01b031681565b6040516001600160a01b0390911681526020016100ee565b6101236101813660046107ab565b60036020526000908152604090205460ff1681565b6101466104a2565b6000546001600160a01b031661015b565b6101466101bd3660046107ab565b6104b6565b6101d56101d036600461070c565b61050a565b6040516100ee939291906108ac565b6101466101f23660046107ab565b6105c1565b6101466102053660046107ab565b610612565b60408051606080820183526000808352602083015291810191909152600082815260026020818152604092839020835160608101855281546001600160a01b031681526001820154928101929092529182018054919384019161026c906108dd565b80601f0160208091040260200160405190810160405280929190818152602001828054610298906108dd565b80156102e55780601f106102ba576101008083540402835291602001916102e5565b820191906000526020600020905b8154815290600101906020018083116102c857829003601f168201915b5050505050815250509050919050565b3360009081526003602052604090205460ff16610373576040517f08c379a000000000000000000000000000000000000000000000000000000000815260206004820152601860248201527f43616c6c6572206973206e6f742061207665726966696572000000000000000060448201526064015b60405180910390fd5b6001546040517f14fe83f8000000000000000000000000000000000000000000000000000000008152600481018490526001600160a01b03909116906314fe83f890602401600060405180830381600087803b1580156103d257600080fd5b505af11580156103e6573d6000803e3d6000fd5b5050604080516060810182523381524260208083019182528284018781526000898152600292839052949094208351815473ffffffffffffffffffffffffffffffffffffffff19166001600160a01b039091161781559151600183015592519194509250908201906104589082610966565b50905050336001600160a01b0316827f22b374d86dbac4169eef6a342bb371b562c7b328445b558d2af8d09e76ba294a836040516104969190610a26565b60405180910390a35050565b6104aa610669565b6104b460006106af565b565b6104be610669565b6001600160a01b038116600081815260036020526040808220805460ff19166001179055517f6d05492139c5ea989514a5d2150c028041e5c087e2a39967f67dc7d2655adb819190a250565b60026020819052600091825260409091208054600182015492820180546001600160a01b0390921693929161053e906108dd565b80601f016020809104026020016040519081016040528092919081815260200182805461056a906108dd565b80156105b75780601f1061058c576101008083540402835291602001916105b7565b820191906000526020600020905b81548152906001019060200180831161059a57829003601f168201915b5050505050905083565b6105c9610669565b6001600160a01b038116600081815260036020526040808220805460ff19169055517f44a3cd4eb5cc5748f6169df057b1cb2ae4c383e87cd94663c430e095d4cba4249190a250565b61061a610669565b6001600160a01b03811661065d576040517f1e4fbdf70000000000000000000000000000000000000000000000000000000081526000600482015260240161036a565b610666816106af565b50565b6000546001600160a01b031633146104b4576040517f118cdaa700000000000000000000000000000000000000000000000000000000815233600482015260240161036a565b600080546001600160a01b0383811673ffffffffffffffffffffffffffffffffffffffff19831681178455604051919092169283917f8be0079c531659141344cd1fd0a4f28419497f9722a3daafe3b4186f6b6457e09190a35050565b60006020828403121561071e57600080fd5b5035919050565b6000815180845260005b8181101561074b5760208185018101518683018201520161072f565b506000602082860101526020601f19601f83011685010191505092915050565b602081526001600160a01b03825116602082015260208201516040820152600060408301516060808401526107a36080840182610725565b949350505050565b6000602082840312156107bd57600080fd5b81356001600160a01b03811681146107d457600080fd5b9392505050565b634e487b7160e01b600052604160045260246000fd5b6000806040838503121561080457600080fd5b82359150602083013567ffffffffffffffff8082111561082357600080fd5b818501915085601f83011261083757600080fd5b813581811115610849576108496107db565b604051601f8201601f19908116603f01168101908382118183101715610871576108716107db565b8160405282815288602084870101111561088a57600080fd5b8260208601602083013760006020848301015280955050505050509250929050565b6001600160a01b03841681528260208201526060604082015260006108d46060830184610725565b95945050505050565b600181811c908216806108f157607f821691505b60208210810361091157634e487b7160e01b600052602260045260246000fd5b50919050565b601f82111561096157600081815260208120601f850160051c8101602086101561093e5750805b601f850160051c820191505b8181101561095d5782815560010161094a565b5050505b505050565b815167ffffffffffffffff811115610980576109806107db565b6109948161098e84546108dd565b84610917565b602080601f8311600181146109c957600084156109b15750858301515b600019600386901b1c1916600185901b17855561095d565b600085815260208120601f198616915b828110156109f8578886015182559484019460019091019084016109d9565b5085821015610a165787850151600019600388901b60f8161c191681555b5050505050600190811b01905550565b6020815260006107d4602083018461072556fea26469706673582212207c63dc509c3439dc6b280be3c7ba3db6fa5eb05588fdf1ac58f228e7935ee86964736f6c63430008140033",
  "linkReferences": {},
  "deployedLinkReferences": {}
}