{
  "_format": "hh-sol-artifact-1",
  "contractName": "CarbonCredit",
  "sourceName": "contracts/CarbonCredit.sol",
  "abi": [
    {
      "inputs": [],
      "stateMutability": "nonpayable",
      "type": "constructor"
    },
    {
      "inputs": [
        {
          "internalType": "address",
          "name": "sender",
          "type": "address"
        },
        {
          "internalType": "uint256",
          "name": "tokenId",
          "type": "uint256"
        },
        {
          "internalType": "address",
          "name": "owner",
          "type": "address"
        }
      ],
      "name": "ERC721IncorrectOwner",
      "type": "error"
    },
    {
      "inputs": [
        {
          "internalType": "address",
          "name": "operator",
          "type": "address"
        },
        {
          "internalType": "uint256",
          "name": "tokenId",
          "type": "uint256"
        }
      ],
      "name": "ERC721InsufficientApproval",
      "type": "error"
    },
    {
      "inputs": [
        {
          "internalType": "address",
          "name": "approver",
          "type": "address"
        }
      ],
      "name": "ERC721InvalidApprover",
      "type": "error"
    },
    {
      "inputs": [
        {
          "internalType": "address",
          "name": "operator",
          "type": "address"
        }
      ],
      "name": "ERC721InvalidOperator",
      "type": "error"
    },
    {
      "inputs": [
        {
          "internalType": "address",
          "name": "owner",
          "type": "address"
        }
      ],
      "name": "ERC721InvalidOwner",
      "type": "error"
    },
    {
      "inputs": [
        {
          "internalType": "address",
          "name": "receiver",
          "type": "address"
        }
      ],
      "name": "ERC721InvalidReceiver",
      "type": "error"
    },
    {
      "inputs": [
        {
          "internalType": "address",
          "name": "sender",
          "type": "address"
        }
      ],
      "name": "ERC721InvalidSender",
      "type": "error"
    },
    {
      "inputs": [
        {
          "internalType": "uint256",
          "name": "tokenId",
          "type": "uint256"
        }
      ],
      "name": "ERC721NonexistentToken",
      "type": "error"
    },
    {
      "inputs": [
        {
          "internalType": "address",
          "name": "owner",
          "type": "address"
        }
      ],
      "name": "OwnableInvalidOwner",
      "type": "error"
    },
    {
      "inputs": [
        {
          "internalType": "address",
          "name": "account",
          "type": "address"
        }
      ],
      "name": "OwnableUnauthorizedAccount",
      "type": "error"
    },
    {
      "anonymous": false,
      "inputs": [
        {
          "indexed": true,
          "internalType": "address",
          "name": "owner",
          "type": "address"
        },
        {
          "indexed": true,
          "internalType": "address",
          "name": "approved",
          "type": "address"
        },
        {
          "indexed": true,
          "internalType": "uint256",
          "name": "tokenId",
          "type": "uint256"
        }
      ],
      "name": "Approval",
      "type": "event"
    },
    {
      "anonymous": false,
      "inputs": [
        {
          "indexed": true,
          "internalType": "address",
          "name": "owner",
          "type": "address"
        },
        {
          "indexed": true,
          "internalType": "address",
          "name": "operator",
          "type": "address"
        },
        {
          "indexed": false,
          "internalType": "bool",
          "name": "approved",
          "type": "bool"
        }
      ],
      "name": "ApprovalForAll",
      "type": "event"
    },
    {
      "anonymous": false,
      "inputs": [
        {
          "indexed": true,
          "internalType": "uint256",
          "name": "tokenId",
          "type": "uint256"
        },
        {
          "indexed": true,
          "internalType": "address",
          "name": "owner",
          "type": "address"
        },
        {
          "indexed": false,
          "internalType": "uint256",
          "name": "amount",
          "type": "uint256"
        }
      ],
      "name": "CreditMinted",
      "type": "event"
    },
    {
      "anonymous": false,
      "inputs": [
        {
          "indexed": true,
          "internalType": "uint256",
          "name": "tokenId",
          "type": "uint256"
        }
      ],
      "name": "CreditVerified",
      "type": "event"
    },
    {
      "anonymous": false,
      "inputs": [
        {
          "indexed": true,
          "internalType": "address",
          "name": "previousOwner",
          "type": "address"
        },
        {
          "indexed": true,
          "internalType": "address",
          "name": "newOwner",
          "type": "address"
        }
      ],
      "name": "OwnershipTransferred",
      "type": "event"
    },
    {
      "anonymous": false,
      "inputs": [
        {
          "indexed": true,
          "internalType": "address",
          "name": "from",
          "type": "address"
        },
        {
          "indexed": true,
          "internalType": "address",
          "name": "to",
          "type": "address"
        },
        {
          "indexed": true,
          "internalType": "uint256",
          "name": "tokenId",
          "type": "uint256"
        }
      ],
      "name": "Transfer",
      "type": "event"
    },
    {
      "inputs": [
        {
          "internalType": "address",
          "name": "to",
          "type": "address"
        },
        {
          "internalType": "uint256",
          "name": "tokenId",
          "type": "uint256"
        }
      ],
      "name": "approve",
      "outputs": [],
      "stateMutability": "nonpayable",
      "type": "function"
    },
    {
      "inputs": [
        {
          "internalType": "address",
          "name": "owner",
          "type": "address"
        }
      ],
      "name": "balanceOf",
      "outputs": [
        {
          "internalType": "uint256",
          "name": "",
          "type": "uint256"
        }
      ],
      "stateMutability": "view",
      "type": "function"
    },
    {
      "inputs": [
        {
          "internalType": "uint256",
          "name": "",
          "type": "uint256"
        }
      ],
      "name": "credits",
      "outputs": [
        {
          "internalType": "uint256",
          "name": "amount",
          "type": "uint256"
        },
        {
          "internalType": "string",
          "name": "projectType",
          "type": "string"
        },
        {
          "internalType": "uint256",
          "name": "validUntil",
          "type": "uint256"
        },
        {
          "internalType": "bool",
          "name": "verified",
          "type": "bool"
        },
        {
          "internalType": "string",
          "name": "metadataURI",
          "type": "string"
        }
      ],
      "stateMutability": "view",
      "type": "function"
    },
    {
      "inputs": [
        {
          "internalType": "uint256",
          "name": "tokenId",
          "type": "uint256"
        }
      ],
      "name": "getApproved",
      "outputs": [
        {
          "internalType": "address",
          "name": "",
          "type": "address"
        }
      ],
      "stateMutability": "view",
      "type": "function"
    },
    {
      "inputs": [
        {
          "internalType": "uint256",
          "name": "tokenId",
          "type": "uint256"
        }
      ],
      "name": "getCreditDetails",
      "outputs": [
        {
          "components": [
            {
              "internalType": "uint256",
              "name": "amount",
              "type": "uint256"
            },
            {
              "internalType": "string",
              "name": "projectType",
              "type": "string"
            },
            {
              "internalType": "uint256",
              "name": "validUntil",
              "type": "uint256"
            },
            {
              "internalType": "bool",
              "name": "verified",
              "type": "bool"
            },
            {
              "internalType": "string",
              "name": "metadataURI",
              "type": "string"
            }
          ],
          "internalType": "struct CarbonCredit.Credit",
          "name": "",
          "type": "tuple"
        }
      ],
      "stateMutability": "view",
      "type": "function"
    },
    {
      "inputs": [
        {
          "internalType": "address",
          "name": "owner",
          "type": "address"
        },
        {
          "internalType": "address",
          "name": "operator",
          "type": "address"
        }
      ],
      "name": "isApprovedForAll",
      "outputs": [
        {
          "internalType": "bool",
          "name": "",
          "type": "bool"
        }
      ],
      "stateMutability": "view",
      "type": "function"
    },
    {
      "inputs": [
        {
          "internalType": "address",
          "name": "recipient",
          "type": "address"
        },
        {
          "internalType": "uint256",
          "name": "amount",
          "type": "uint256"
        },
        {
          "internalType": "string",
          "name": "projectType",
          "type": "string"
        },
        {
          "internalType": "uint256",
          "name": "validityPeriod",
          "type": "uint256"
        },
        {
          "internalType": "string",
          "name": "metadataURI",
          "type": "string"
        }
      ],
      "name": "mintCredit",
      "outputs": [
        {
          "internalType": "uint256",
          "name": "",
          "type": "uint256"
        }
      ],
      "stateMutability": "nonpayable",
      "type": "function"
    },
    {
      "inputs": [],
      "name": "name",
      "outputs": [
        {
          "internalType": "string",
          "name": "",
          "type": "string"
        }
      ],
      "stateMutability": "view",
      "type": "function"
    },
    {
      "inputs": [],
      "name": "owner",
      "outputs": [
        {
          "internalType": "address",
          "name": "",
          "type": "address"
        }
      ],
      "stateMutability": "view",
      "type": "function"
    },
    {
      "inputs": [
        {
          "internalType": "uint256",
          "name": "tokenId",
          "type": "uint256"
        }
      ],
      "name": "ownerOf",
      "outputs": [
        {
          "internalType": "address",
          "name": "",
          "type": "address"
        }
      ],
      "stateMutability": "view",
      "type": "function"
    },
    {
      "inputs": [],
      "name": "renounceOwnership",
      "outputs": [],
      "stateMutability": "nonpayable",
      "type": "function"
    },
    {
      "inputs": [
        {
          "internalType": "address",
          "name": "from",
          "type": "address"
        },
        {
          "internalType": "address",
          "name": "to",
          "type": "address"
        },
        {
          "internalType": "uint256",
          "name": "tokenId",
          "type": "uint256"
        }
      ],
      "name": "safeTransferFrom",
      "outputs": [],
      "stateMutability": "nonpayable",
      "type": "function"
    },
    {
      "inputs": [
        {
          "internalType": "address",
          "name": "from",
          "type": "address"
        },
        {
          "internalType": "address",
          "name": "to",
          "type": "address"
        },
        {
          "internalType": "uint256",
          "name": "tokenId",
          "type": "uint256"
        },
        {
          "internalType": "bytes",
          "name": "data",
          "type": "bytes"
        }
      ],
      "name": "safeTransferFrom",
      "outputs": [],
      "stateMutability": "nonpayable",
      "type": "function"
    },
    {
      "inputs": [
        {
          "internalType": "address",
          "name": "operator",
          "type": "address"
        },
        {
          "internalType": "bool",
          "name": "approved",
          "type": "bool"
        }
      ],
      "name": "setApprovalForAll",
      "outputs": [],
      "stateMutability": "nonpayable",
      "type": "function"
    },
    {
      "inputs": [
        {
          "internalType": "bytes4",
          "name": "interfaceId",
          "type": "bytes4"
        }
      ],
      "name": "supportsInterface",
      "outputs": [
        {
          "internalType": "bool",
          "name": "",
          "type": "bool"
        }
      ],
      "stateMutability": "view",
      "type": "function"
    },
    {
      "inputs": [],
      "name": "symbol",
      "outputs": [
        {
          "internalType": "string",
          "name": "",
          "type": "string"
        }
      ],
      "stateMutability": "view",
      "type": "function"
    },
    {
      "inputs": [
        {
          "internalType": "uint256",
          "name": "tokenId",
          "type": "uint256"
        }
      ],
      "name": "tokenURI",
      "outputs": [
        {
          "internalType": "string",
          "name": "",
          "type": "string"
        }
      ],
      "stateMutability": "view",
      "type": "function"
    },
    {
      "inputs": [
        {
          "internalType": "address",
          "name": "from",
          "type": "address"
        },
        {
          "internalType": "address",
          "name": "to",
          "type": "address"
        },
        {
          "internalType": "uint256",
          "name": "tokenId",
          "type": "uint256"
        }
      ],
      "name": "transferFrom",
      "outputs": [],
      "stateMutability": "nonpayable",
      "type": "function"
    },
    {
      "inputs": [
        {
          "internalType": "address",
          "name": "newOwner",
          "type": "address"
        }
      ],
      "name": "transferOwnership",
      "outputs": [],
      "stateMutability": "nonpayable",
      "type": "function"
    },
    {
      "inputs": [
        {
          "internalType": "uint256",
          "name": "tokenId",
          "type": "uint256"
        }
      ],
      "name": "verifyCredit",
      "outputs": [],
      "stateMutability": "nonpayable",
      "type": "function"
    }
  ],
  "bytecode": "0x60806040523480156200001157600080fd5b50336040518060400160405280600d81526020016c10d85c989bdb8810dc99591a5d609a1b81525060405180604001604052806002815260200161434360f01b8152508160009081620000659190620001af565b506001620000748282620001af565b5050506001600160a01b038116620000a657604051631e4fbdf760e01b81526000600482015260240160405180910390fd5b620000b181620000b8565b506200027b565b600680546001600160a01b038381166001600160a01b0319831681179093556040519116919082907f8be0079c531659141344cd1fd0a4f28419497f9722a3daafe3b4186f6b6457e090600090a35050565b634e487b7160e01b600052604160045260246000fd5b600181811c908216806200013557607f821691505b6020821081036200015657634e487b7160e01b600052602260045260246000fd5b50919050565b601f821115620001aa57600081815260208120601f850160051c81016020861015620001855750805b601f850160051c820191505b81811015620001a65782815560010162000191565b5050505b505050565b81516001600160401b03811115620001cb57620001cb6200010a565b620001e381620001dc845462000120565b846200015c565b602080601f8311600181146200021b5760008415620002025750858301515b600019600386901b1c1916600185901b178555620001a6565b600085815260208120601f198616915b828110156200024c578886015182559484019460019091019084016200022b565b50858210156200026b5787850151600019600388901b60f8161c191681555b5050505050600190811b01905550565b611b4f806200028b6000396000f3fe608060405234801561001057600080fd5b506004361061016c5760003560e01c806370a08231116100cd578063b88d4fde11610081578063e985e9c511610066578063e985e9c5146102ec578063f2fde38b14610328578063f85aafbd1461033b57600080fd5b8063b88d4fde146102c6578063c87b56dd146102d957600080fd5b80638da5cb5b116100b25780638da5cb5b1461029a57806395d89b41146102ab578063a22cb465146102b357600080fd5b806370a082311461027f578063715018a61461029257600080fd5b8063099c84631161012457806323b872dd1161010957806323b872dd1461024657806342842e0e146102595780636352211e1461026c57600080fd5b8063099c84631461021257806314fe83f81461023357600080fd5b806306fdde031161015557806306fdde03146101bd578063081812fc146101d2578063095ea7b3146101fd57600080fd5b806301ffc9a714610171578063036a1c2214610199575b600080fd5b61018461017f3660046114ec565b61035b565b60405190151581526020015b60405180910390f35b6101ac6101a7366004611509565b6103f8565b604051610190959493929190611572565b6101c561053f565b60405161019091906115b7565b6101e56101e0366004611509565b6105d1565b6040516001600160a01b039091168152602001610190565b61021061020b3660046115e6565b6105fa565b005b610225610220366004611659565b610609565b604051908152602001610190565b610210610241366004611509565b610785565b6102106102543660046116ed565b61083c565b6102106102673660046116ed565b6108e0565b6101e561027a366004611509565b610900565b61022561028d366004611729565b61090b565b61021061096c565b6006546001600160a01b03166101e5565b6101c5610980565b6102106102c1366004611744565b61098f565b6102106102d4366004611796565b61099a565b6101c56102e7366004611509565b6109b1565b6101846102fa366004611872565b6001600160a01b03918216600090815260056020908152604080832093909416825291909152205460ff1690565b610210610336366004611729565b610a26565b61034e610349366004611509565b610a7d565b60405161019091906118a5565b60006001600160e01b031982167f80ac58cd0000000000000000000000000000000000000000000000000000000014806103be57506001600160e01b031982167f5b5e139f00000000000000000000000000000000000000000000000000000000145b806103f257507f01ffc9a7000000000000000000000000000000000000000000000000000000006001600160e01b03198316145b92915050565b6008602052600090815260409020805460018201805491929161041a90611907565b80601f016020809104026020016040519081016040528092919081815260200182805461044690611907565b80156104935780601f1061046857610100808354040283529160200191610493565b820191906000526020600020905b81548152906001019060200180831161047657829003601f168201915b50505050600283015460038401546004850180549495929460ff9092169350906104bc90611907565b80601f01602080910402602001604051908101604052809291908181526020018280546104e890611907565b80156105355780601f1061050a57610100808354040283529160200191610535565b820191906000526020600020905b81548152906001019060200180831161051857829003601f168201915b5050505050905085565b60606000805461054e90611907565b80601f016020809104026020016040519081016040528092919081815260200182805461057a90611907565b80156105c75780601f1061059c576101008083540402835291602001916105c7565b820191906000526020600020905b8154815290600101906020018083116105aa57829003601f168201915b5050505050905090565b60006105dc82610c85565b506000828152600460205260409020546001600160a01b03166103f2565b610605828233610cbe565b5050565b6000610613610ccb565b600780546000918261062483611957565b9190505590506106348982610d11565b6040518060a0016040528089815260200188888080601f01602080910402602001604051908101604052809392919081815260200183838082843760009201919091525050509082525060200161068b8742611970565b815260200160001515815260200185858080601f0160208091040260200160405190810160405280939291908181526020018383808284376000920182905250939094525050838152600860209081526040909120835181559083015190915060018201906106fa90826119d1565b5060408201516002820155606082015160038201805460ff19169115159190911790556080820151600482019061073190826119d1565b50905050886001600160a01b0316817f3d33d1076da5ff846213366be62cdb31e30a7c72f55e923f3a76a7623330af128a60405161077191815260200190565b60405180910390a398975050505050505050565b61078d610ccb565b6000818152600260205260409020546001600160a01b03166107f65760405162461bcd60e51b815260206004820152601460248201527f546f6b656e20646f6573206e6f7420657869737400000000000000000000000060448201526064015b60405180910390fd5b600081815260086020526040808220600301805460ff191660011790555182917f4f4019213d198a6b2698d51c79895fa6c7e5a5c79e4f5c04f3285b44c24d18d691a250565b6001600160a01b03821661086657604051633250574960e11b8152600060048201526024016107ed565b6000610873838333610d2b565b9050836001600160a01b0316816001600160a01b0316146108da576040517f64283d7b0000000000000000000000000000000000000000000000000000000081526001600160a01b03808616600483015260248201849052821660448201526064016107ed565b50505050565b6108fb8383836040518060200160405280600081525061099a565b505050565b60006103f282610c85565b60006001600160a01b038216610950576040517f89c62b64000000000000000000000000000000000000000000000000000000008152600060048201526024016107ed565b506001600160a01b031660009081526003602052604090205490565b610974610ccb565b61097e6000610e31565b565b60606001805461054e90611907565b610605338383610e90565b6109a584848461083c565b6108da84848484610f48565b60606109bc82610c85565b5060006109d460408051602081019091526000815290565b905060008151116109f45760405180602001604052806000815250610a1f565b806109fe84611071565b604051602001610a0f929190611a91565b6040516020818303038152906040525b9392505050565b610a2e610ccb565b6001600160a01b038116610a71576040517f1e4fbdf7000000000000000000000000000000000000000000000000000000008152600060048201526024016107ed565b610a7a81610e31565b50565b610ab16040518060a00160405280600081526020016060815260200160008152602001600015158152602001606081525090565b6000828152600260205260409020546001600160a01b0316610b155760405162461bcd60e51b815260206004820152601460248201527f546f6b656e20646f6573206e6f7420657869737400000000000000000000000060448201526064016107ed565b600860008381526020019081526020016000206040518060a001604052908160008201548152602001600182018054610b4d90611907565b80601f0160208091040260200160405190810160405280929190818152602001828054610b7990611907565b8015610bc65780601f10610b9b57610100808354040283529160200191610bc6565b820191906000526020600020905b815481529060010190602001808311610ba957829003601f168201915b505050918352505060028201546020820152600382015460ff1615156040820152600482018054606090920191610bfc90611907565b80601f0160208091040260200160405190810160405280929190818152602001828054610c2890611907565b8015610c755780601f10610c4a57610100808354040283529160200191610c75565b820191906000526020600020905b815481529060010190602001808311610c5857829003601f168201915b5050505050815250509050919050565b6000818152600260205260408120546001600160a01b0316806103f257604051637e27328960e01b8152600481018490526024016107ed565b6108fb8383836001611111565b6006546001600160a01b0316331461097e576040517f118cdaa70000000000000000000000000000000000000000000000000000000081523360048201526024016107ed565b61060582826040518060200160405280600081525061125c565b6000828152600260205260408120546001600160a01b0390811690831615610d5857610d58818486611273565b6001600160a01b03811615610d9657610d75600085600080611111565b6001600160a01b038116600090815260036020526040902080546000190190555b6001600160a01b03851615610dc5576001600160a01b0385166000908152600360205260409020805460010190555b600084815260026020526040808220805473ffffffffffffffffffffffffffffffffffffffff19166001600160a01b0389811691821790925591518793918516917fddf252ad1be2c89b69c2b068fc378daa952ba7f163c4a11628f55a4df523b3ef91a4949350505050565b600680546001600160a01b0383811673ffffffffffffffffffffffffffffffffffffffff19831681179093556040519116919082907f8be0079c531659141344cd1fd0a4f28419497f9722a3daafe3b4186f6b6457e090600090a35050565b6001600160a01b038216610edb576040517f5b08ba180000000000000000000000000000000000000000000000000000000081526001600160a01b03831660048201526024016107ed565b6001600160a01b03838116600081815260056020908152604080832094871680845294825291829020805460ff191686151590811790915591519182527f17307eab39ab6107e8899845ad3d59bd9653f200f220920489ca2b5937696c31910160405180910390a3505050565b6001600160a01b0383163b156108da57604051630a85bd0160e11b81526001600160a01b0384169063150b7a0290610f8a903390889087908790600401611ac0565b6020604051808303816000875af1925050508015610fc5575060408051601f3d908101601f19168201909252610fc291810190611afc565b60015b61102e573d808015610ff3576040519150601f19603f3d011682016040523d82523d6000602084013e610ff8565b606091505b50805160000361102657604051633250574960e11b81526001600160a01b03851660048201526024016107ed565b805181602001fd5b6001600160e01b03198116630a85bd0160e11b1461106a57604051633250574960e11b81526001600160a01b03851660048201526024016107ed565b5050505050565b6060600061107e836112f0565b600101905060008167ffffffffffffffff81111561109e5761109e611780565b6040519080825280601f01601f1916602001820160405280156110c8576020820181803683370190505b5090508181016020015b600019017f3031323334353637383961626364656600000000000000000000000000000000600a86061a8153600a85049450846110d257509392505050565b808061112557506001600160a01b03821615155b1561121f57600061113584610c85565b90506001600160a01b038316158015906111615750826001600160a01b0316816001600160a01b031614155b801561119357506001600160a01b0380821660009081526005602090815260408083209387168352929052205460ff16155b156111d5576040517fa9fbf51f0000000000000000000000000000000000000000000000000000000081526001600160a01b03841660048201526024016107ed565b811561121d5783856001600160a01b0316826001600160a01b03167f8c5be1e5ebec7d5bd14f71427d1e84f3dd0314c0f7b2291e5b200ac8c7c3b92560405160405180910390a45b505b50506000908152600460205260409020805473ffffffffffffffffffffffffffffffffffffffff19166001600160a01b0392909216919091179055565b61126683836113d2565b6108fb6000848484610f48565b61127e838383611450565b6108fb576001600160a01b0383166112ac57604051637e27328960e01b8152600481018290526024016107ed565b6040517f177e802f0000000000000000000000000000000000000000000000000000000081526001600160a01b0383166004820152602481018290526044016107ed565b6000807a184f03e93ff9f4daa797ed6e38ed64bf6a1f0100000000000000008310611339577a184f03e93ff9f4daa797ed6e38ed64bf6a1f010000000000000000830492506040015b6d04ee2d6d415b85acef81000000008310611365576d04ee2d6d415b85acef8100000000830492506020015b662386f26fc10000831061138357662386f26fc10000830492506010015b6305f5e100831061139b576305f5e100830492506008015b61271083106113af57612710830492506004015b606483106113c1576064830492506002015b600a83106103f25760010192915050565b6001600160a01b0382166113fc57604051633250574960e11b8152600060048201526024016107ed565b600061140a83836000610d2b565b90506001600160a01b038116156108fb576040517f73c6ac6e000000000000000000000000000000000000000000000000000000008152600060048201526024016107ed565b60006001600160a01b038316158015906114ce5750826001600160a01b0316846001600160a01b031614806114aa57506001600160a01b0380851660009081526005602090815260408083209387168352929052205460ff165b806114ce57506000828152600460205260409020546001600160a01b038481169116145b949350505050565b6001600160e01b031981168114610a7a57600080fd5b6000602082840312156114fe57600080fd5b8135610a1f816114d6565b60006020828403121561151b57600080fd5b5035919050565b60005b8381101561153d578181015183820152602001611525565b50506000910152565b6000815180845261155e816020860160208601611522565b601f01601f19169290920160200192915050565b85815260a06020820152600061158b60a0830187611546565b856040840152841515606084015282810360808401526115ab8185611546565b98975050505050505050565b602081526000610a1f6020830184611546565b80356001600160a01b03811681146115e157600080fd5b919050565b600080604083850312156115f957600080fd5b611602836115ca565b946020939093013593505050565b60008083601f84011261162257600080fd5b50813567ffffffffffffffff81111561163a57600080fd5b60208301915083602082850101111561165257600080fd5b9250929050565b600080600080600080600060a0888a03121561167457600080fd5b61167d886115ca565b965060208801359550604088013567ffffffffffffffff808211156116a157600080fd5b6116ad8b838c01611610565b909750955060608a0135945060808a01359150808211156116cd57600080fd5b506116da8a828b01611610565b989b979a50959850939692959293505050565b60008060006060848603121561170257600080fd5b61170b846115ca565b9250611719602085016115ca565b9150604084013590509250925092565b60006020828403121561173b57600080fd5b610a1f826115ca565b6000806040838503121561175757600080fd5b611760836115ca565b91506020830135801515811461177557600080fd5b809150509250929050565b634e487b7160e01b600052604160045260246000fd5b600080600080608085870312156117ac57600080fd5b6117b5856115ca565b93506117c3602086016115ca565b925060408501359150606085013567ffffffffffffffff808211156117e757600080fd5b818701915087601f8301126117fb57600080fd5b81358181111561180d5761180d611780565b604051601f8201601f19908116603f0116810190838211818310171561183557611835611780565b816040528281528a602084870101111561184e57600080fd5b82602086016020830137600060208483010152809550505050505092959194509250565b6000806040838503121561188557600080fd5b61188e836115ca565b915061189c602084016115ca565b90509250929050565b60208152815160208201526000602083015160a060408401526118cb60c0840182611546565b9050604084015160608401526060840151151560808401526080840151601f198483030160a08501526118fe8282611546565b95945050505050565b600181811c9082168061191b57607f821691505b60208210810361193b57634e487b7160e01b600052602260045260246000fd5b50919050565b634e487b7160e01b600052601160045260246000fd5b60006001820161196957611969611941565b5060010190565b808201808211156103f2576103f2611941565b601f8211156108fb57600081815260208120601f850160051c810160208610156119aa5750805b601f850160051c820191505b818110156119c9578281556001016119b6565b505050505050565b815167ffffffffffffffff8111156119eb576119eb611780565b6119ff816119f98454611907565b84611983565b602080601f831160018114611a345760008415611a1c5750858301515b600019600386901b1c1916600185901b1785556119c9565b600085815260208120601f198616915b82811015611a6357888601518255948401946001909101908401611a44565b5085821015611a815787850151600019600388901b60f8161c191681555b5050505050600190811b01905550565b60008351611aa3818460208801611522565b835190830190611ab7818360208801611522565b01949350505050565b60006001600160a01b03808716835280861660208401525083604083015260806060830152611af26080830184611546565b9695505050505050565b600060208284031215611b0e57600080fd5b8151610a1f816114d656fea26469706673582212200b80a966db19e4f6fdda48ee206d707463d17ac5485defd55e89194259db406864736f6c63430008140033",
  "linkReferences": {},
  "deployedLinkReferences": {}
}