{
  "_format": "hh-sol-artifact-1",
  "contractName": "CarbonCreditMarket",
  "sourceName": "contracts/CarbonCreditMarket.sol",
  "abi": [
    {
      "inputs": [
        {
          "internalType": "address",
          "name": "_carbonCreditToken",
          "type": "address"
        }
      ],
      "stateMutability": "nonpayable",
      "type": "constructor"
    },
    {
      "inputs": [
        {
          "internalType": "address",
          "name": "owner",
          "type": "address"
        }
      ],
      "name": "OwnableInvalidOwner",
      "type": "error"
    },
    {
      "inputs": [
        {
          "internalType": "address",
          "name": "account",
          "type": "address"
        }
      ],
      "name": "OwnableUnauthorizedAccount",
      "type": "error"
    },
    {
      "anonymous": false,
      "inputs": [
        {
          "indexed": true,
          "internalType": "uint256",
          "name": "tokenId",
          "type": "uint256"
        },
        {
          "indexed": true,
          "internalType": "address",
          "name": "seller",
          "type": "address"
        },
        {
          "indexed": false,
          "internalType": "uint256",
          "name": "price",
          "type": "uint256"
        }
      ],
      "name": "CreditListed",
      "type": "event"
    },
    {
      "anonymous": false,
      "inputs": [
        {
          "indexed": true,
          "internalType": "uint256",
          "name": "tokenId",
          "type": "uint256"
        },
        {
          "indexed": true,
          "internalType": "address",
          "name": "seller",
          "type": "address"
        },
        {
          "indexed": true,
          "internalType": "address",
          "name": "buyer",
          "type": "address"
        },
        {
          "indexed": false,
          "internalType": "uint256",
          "name": "price",
          "type": "uint256"
        }
      ],
      "name": "CreditSold",
      "type": "event"
    },
    {
      "anonymous": false,
      "inputs": [
        {
          "indexed": true,
          "internalType": "uint256",
          "name": "tokenId",
          "type": "uint256"
        },
        {
          "indexed": true,
          "internalType": "address",
          "name": "seller",
          "type": "address"
        }
      ],
      "name": "ListingCanceled",
      "type": "event"
    },
    {
      "anonymous": false,
      "inputs": [
        {
          "indexed": true,
          "internalType": "address",
          "name": "previousOwner",
          "type": "address"
        },
        {
          "indexed": true,
          "internalType": "address",
          "name": "newOwner",
          "type": "address"
        }
      ],
      "name": "OwnershipTransferred",
      "type": "event"
    },
    {
      "anonymous": false,
      "inputs": [
        {
          "indexed": true,
          "internalType": "uint256",
          "name": "tokenId",
          "type": "uint256"
        },
        {
          "indexed": false,
          "internalType": "uint256",
          "name": "newPrice",
          "type": "uint256"
        }
      ],
      "name": "PriceUpdated",
      "type": "event"
    },
    {
      "inputs": [
        {
          "internalType": "uint256",
          "name": "tokenId",
          "type": "uint256"
        }
      ],
      "name": "buyCredit",
      "outputs": [],
      "stateMutability": "payable",
      "type": "function"
    },
    {
      "inputs": [
        {
          "internalType": "uint256",
          "name": "tokenId",
          "type": "uint256"
        }
      ],
      "name": "cancelListing",
      "outputs": [],
      "stateMutability": "nonpayable",
      "type": "function"
    },
    {
      "inputs": [],
      "name": "carbonCreditToken",
      "outputs": [
        {
          "internalType": "contract IERC721",
          "name": "",
          "type": "address"
        }
      ],
      "stateMutability": "view",
      "type": "function"
    },
    {
      "inputs": [
        {
          "internalType": "uint256",
          "name": "tokenId",
          "type": "uint256"
        },
        {
          "internalType": "uint256",
          "name": "price",
          "type": "uint256"
        }
      ],
      "name": "listCredit",
      "outputs": [],
      "stateMutability": "nonpayable",
      "type": "function"
    },
    {
      "inputs": [
        {
          "internalType": "uint256",
          "name": "",
          "type": "uint256"
        }
      ],
      "name": "listings",
      "outputs": [
        {
          "internalType": "address",
          "name": "seller",
          "type": "address"
        },
        {
          "internalType": "uint256",
          "name": "price",
          "type": "uint256"
        },
        {
          "internalType": "bool",
          "name": "isActive",
          "type": "bool"
        }
      ],
      "stateMutability": "view",
      "type": "function"
    },
    {
      "inputs": [],
      "name": "owner",
      "outputs": [
        {
          "internalType": "address",
          "name": "",
          "type": "address"
        }
      ],
      "stateMutability": "view",
      "type": "function"
    },
    {
      "inputs": [],
      "name": "renounceOwnership",
      "outputs": [],
      "stateMutability": "nonpayable",
      "type": "function"
    },
    {
      "inputs": [
        {
          "internalType": "address",
          "name": "newOwner",
          "type": "address"
        }
      ],
      "name": "transferOwnership",
      "outputs": [],
      "stateMutability": "nonpayable",
      "type": "function"
    },
    {
      "inputs": [
        {
          "internalType": "uint256",
          "name": "tokenId",
          "type": "uint256"
        },
        {
          "internalType": "uint256",
          "name": "newPrice",
          "type": "uint256"
        }
      ],
      "name": "updatePrice",
      "outputs": [],
      "stateMutability": "nonpayable",
      "type": "function"
    }
  ],
  "bytecode": "0x608060405234801561001057600080fd5b50604051610b85380380610b8583398101604081905261002f916100d4565b338061005557604051631e4fbdf760e01b81526000600482015260240160405180910390fd5b61005e81610084565b50600180546001600160a01b0319166001600160a01b0392909216919091179055610104565b600080546001600160a01b038381166001600160a01b0319831681178455604051919092169283917f8be0079c531659141344cd1fd0a4f28419497f9722a3daafe3b4186f6b6457e09190a35050565b6000602082840312156100e657600080fd5b81516001600160a01b03811681146100fd57600080fd5b9392505050565b610a72806101136000396000f3fe6080604052600436106100965760003560e01c80637211dde4116100695780638da5cb5b1161004e5780638da5cb5b14610162578063de74e57b14610180578063f2fde38b146101f157600080fd5b80637211dde41461012f57806382367b2d1461014257600080fd5b8063305a67a81461009b5780634fbf3929146100bd57806366dea358146100dd578063715018a61461011a575b600080fd5b3480156100a757600080fd5b506100bb6100b63660046109ab565b610211565b005b3480156100c957600080fd5b506100bb6100d83660046109c4565b6102e6565b3480156100e957600080fd5b506001546100fd906001600160a01b031681565b6040516001600160a01b0390911681526020015b60405180910390f35b34801561012657600080fd5b506100bb610545565b6100bb61013d3660046109ab565b610559565b34801561014e57600080fd5b506100bb61015d3660046109c4565b6107f7565b34801561016e57600080fd5b506000546001600160a01b03166100fd565b34801561018c57600080fd5b506101ca61019b3660046109ab565b60026020819052600091825260409091208054600182015491909201546001600160a01b039092169160ff1683565b604080516001600160a01b0390941684526020840192909252151590820152606001610111565b3480156101fd57600080fd5b506100bb61020c3660046109fb565b6108b1565b6000818152600260205260409020546001600160a01b0316331461027c5760405162461bcd60e51b815260206004820152600e60248201527f4e6f74207468652073656c6c657200000000000000000000000000000000000060448201526064015b60405180910390fd5b6000818152600260208190526040808320805473ffffffffffffffffffffffffffffffffffffffff1916815560018101849055909101805460ff1916905551339183917fbb7be15645f4eda9d65591c3a81b5e39256151f91bc25180315de259167c2e239190a350565b6001546040517f6352211e0000000000000000000000000000000000000000000000000000000081526004810184905233916001600160a01b031690636352211e90602401602060405180830381865afa158015610348573d6000803e3d6000fd5b505050506040513d601f19601f8201168201806040525081019061036c9190610a1f565b6001600160a01b0316146103c25760405162461bcd60e51b815260206004820152600f60248201527f4e6f7420746f6b656e206f776e657200000000000000000000000000000000006044820152606401610273565b6001546040517f081812fc0000000000000000000000000000000000000000000000000000000081526004810184905230916001600160a01b03169063081812fc90602401602060405180830381865afa158015610424573d6000803e3d6000fd5b505050506040513d601f19601f820116820180604052508101906104489190610a1f565b6001600160a01b03161461049e5760405162461bcd60e51b815260206004820152601360248201527f4d61726b6574206e6f7420617070726f766564000000000000000000000000006044820152606401610273565b60408051606081018252338082526020808301858152600184860181815260008981526002808652908890209651875473ffffffffffffffffffffffffffffffffffffffff19166001600160a01b03909116178755925191860191909155519301805460ff191693151593909317909255915183815284917f4ac0e51fccbcff90e2efa701b77c9cccff85e9345e1d32c94e7e785993b195c4910160405180910390a35050565b61054d610908565b610557600061094e565b565b600081815260026020818152604092839020835160608101855281546001600160a01b031681526001820154928101929092529091015460ff161515918101829052906105e85760405162461bcd60e51b815260206004820152601260248201527f4c697374696e67206e6f742061637469766500000000000000000000000000006044820152606401610273565b8060200151341461063b5760405162461bcd60e51b815260206004820152600f60248201527f496e636f727265637420707269636500000000000000000000000000000000006044820152606401610273565b80516000838152600260208190526040808320805473ffffffffffffffffffffffffffffffffffffffff19168155600180820194909455909101805460ff19169055905490517f23b872dd0000000000000000000000000000000000000000000000000000000081526001600160a01b03808416600483015233602483015260448201869052909116906323b872dd90606401600060405180830381600087803b1580156106e857600080fd5b505af11580156106fc573d6000803e3d6000fd5b505050506000816001600160a01b03163460405160006040518083038185875af1925050503d806000811461074d576040519150601f19603f3d011682016040523d82523d6000602084013e610752565b606091505b50509050806107a35760405162461bcd60e51b815260206004820152601460248201527f4661696c656420746f2073656e642045746865720000000000000000000000006044820152606401610273565b336001600160a01b0316826001600160a01b0316857f7e47a1e6c94fa983ca28d7705e8a571d166221513a37da6b741dd937d16dfb11346040516107e991815260200190565b60405180910390a450505050565b6000828152600260205260409020546001600160a01b0316331461085d5760405162461bcd60e51b815260206004820152600e60248201527f4e6f74207468652073656c6c65720000000000000000000000000000000000006044820152606401610273565b600082815260026020526040908190206001018290555182907f945c1c4e99aa89f648fbfe3df471b916f719e16d960fcec0737d4d56bd696838906108a59084815260200190565b60405180910390a25050565b6108b9610908565b6001600160a01b0381166108fc576040517f1e4fbdf700000000000000000000000000000000000000000000000000000000815260006004820152602401610273565b6109058161094e565b50565b6000546001600160a01b03163314610557576040517f118cdaa7000000000000000000000000000000000000000000000000000000008152336004820152602401610273565b600080546001600160a01b0383811673ffffffffffffffffffffffffffffffffffffffff19831681178455604051919092169283917f8be0079c531659141344cd1fd0a4f28419497f9722a3daafe3b4186f6b6457e09190a35050565b6000602082840312156109bd57600080fd5b5035919050565b600080604083850312156109d757600080fd5b50508035926020909101359150565b6001600160a01b038116811461090557600080fd5b600060208284031215610a0d57600080fd5b8135610a18816109e6565b9392505050565b600060208284031215610a3157600080fd5b8151610a18816109e656fea26469706673582212209d1437d6dfe6eb6cfbdab7daba64989cb2e1b6548ab0985126c39e5bee32c4d664736f6c63430008140033",
  "linkReferences": {},
  "deployedLinkReferences": {}
}